:100000001DC1000037C1000035C1000033C1000030
:1000100031C100002FC100002DC100002BC1000024
:1000200029C1000027C1000025C1000023C1000034
:1000300021C100001FC100001DC100001BC1000044
:1000400019C1000017C10000DFC5000013C1000086
:1000500011C600000FC1000064C600000BC1000003
:10006000E1C4000007C1000005C1000003C1000099
:1000700001C10000FFC00000FDC000000763423660
:10008000B79BD8A71A39685618AEBAAB558C1D3C29
:10009000B7CC5763BD6DEDFD753EF6177231BF00ED
:1000A0000000803F08000000BE922449123EABAA27
:1000B000AA2ABECDCCCC4C3E00000080BEABAAAA82
:1000C000AA3E00000000BF000000803F00000000CA
:1000D00000084178D3BB4387D1133D190E3CC3BD03
:1000E0004282AD2B3E68EC8276BED98FE1A93E4CB0
:1000F00080EFFFBE01C4FF7F3F00000000006E6183
:100100006E00696E660000407A10F35A00A0724ECD
:1001100018090010A5D4E80000E87648170000E4AC
:100120000B54020000CA9A3B000000E1F5050000F4
:1001300080969800000040420F000000A086010059
:100140000000102700000000E80300000000640029
:10015000000000000A000000000001000000000094
:100160002C76D888DC674F0823DFC1DFAE59E1B1B8
:10017000B796E5E3E453C63AE651997696E8E6C2C7
:100180008426EB898C9B62ED407C6FFCEFBC9C9FCE
:1001900040F2BAA56FA5F490055A2AF75C936B6CF0
:1001A000F9676DC11BFCE0E40D47FEF520E6B500E4
:1001B000D0ED902E0300943577050080841E080052
:1001C00000204E0A000000C80C333333330F986E02
:1001D00012831141EF8D2114893BE65516CFFEE6BF
:1001E000DB18D1844B381BF77C1D901DA4BBE42485
:1001F000203284725E228100C9F124ECA1E53D2702
:100200004E414E494E495459494E46CDCCCC3D0AFB
:10021000D7233C17B7D13877CC2B329595E6241FDE
:10022000B14F0A000020410000C84200401C462097
:10023000BCBE4CCA1B0E5AAEC59D740011241FBE15
:10024000CFEFD4E0DEBFCDBF13E0A0E0B1E0ECE142
:10025000F5E202C005900D92A431B107D9F724E070
:10026000A4E1B3E001C01D92AA36B207E1F7BAD506
:100270000C948C12C5CEF8948B3041F5EFE0F4E08D
:1002800088EB9EE3AEEAB3E480839183A283B383D9
:100290008AE991E8A7E0B5EC84839583A683B783C8
:1002A00083E39FE8A0E9B5E480879187A287B387BD
:1002B00086E69EE2A5E4B5EC84879587A687B78796
:1002C00067E170E081E091E0ECD02DC0863121F54E
:1002D000EFE0F4E010821182128213828AE097E349
:1002E000AEEEB3E484839583A683B78389E29CE171
:1002F000A7E2B4EC80879187A287B3878DE39AE069
:10030000ACE6B3E484879587A687B78767E170E09A
:1003100089E191E0C6D007C0811105C06FE070E0AF
:1003200081E391E0BED0F999FECF40E150E060E278
:1003300070E08FE094E00E945A12EFE0F4E02FE1C9
:1003400034E060E070E081916827862F82958627EF
:10035000082E869586958025082E8695802587709F
:10036000062E672F869507948795702D682706942B
:10037000879570256827E217F30729F7F999FECFCB
:1003800080E390E00E947B1278940895CF93DF93EE
:10039000CDB7DEB766970FB6F894DEBF0FBECDBF00
:1003A00080E090E00196853322E89207D9F7F8942F
:1003B000F999FECF42E150E060E270E0CE01019693
:1003C0000E944A12F999FECFFE013196AE014F5EAE
:1003D0005F4FDF0120E030E08D912827822F82954A
:1003E0008227082E869586958025082E869580255D
:1003F0008770022E232F869507948795302D282706
:100400000694879530252827A417B50729F73DC0FE
:1004100081918D934E175F07D9F7CB0177230CF4A9
:1004200003968C7FFC01E15FFB4F8B899C89AD8932
:10043000BE8980839183A283B3836C5F7F4FFA016F
:100440006031710531F0DE015396AF014C5F5F4FB3
:10045000DFCF8A8990E0982F88274989840F911DE2
:100460008217930741F468E070E081E491E019D0CD
:10047000789481E00DC060E170E08AE491E011D0F1
:100480008BE0F9DE789480E003C060E070E0DBCFC1
:1004900066960FB6F894DEBF0FBECDBFDF91CF9149
:1004A00008950F931F93CF93DF93F89416161706B2
:1004B000D4F54FB7F89420914D0430914E044FBFBE
:1004C000203A310580F5DC01680F791F03E414E060
:1004D00009C02FB7F894E8018A859B852FBF803A21
:1004E000910508F52D91F80180819181EC01288317
:1004F000208131812F5F3F4F318320834681578197
:100500002417350721F484819581918380839FB7D7
:10051000F894228533852F5F3F4F338722879FBF13
:10052000A617B707B1F68091C10086FD1FC0E1ECA8
:10053000F0E0808180648083E3E4F4E0A281B38111
:100540002D91B383A28386819781A817B90721F4DF
:1005500084819581938382833FB7F89482859385C4
:100560000197938782873FBF2093C6007894DF91DD
:10057000CF911F910F910895FF920F931F93CF93E7
:10058000DF9360910E0470E0161617060CF00AC196
:10059000AFE1B4E080E090E050E040E030E0C0E067
:1005A000D0E011E00F2EFFE0FF2EF02D02C0C3308F
:1005B00078F52D91203271F051110CC000E1C09FEF
:1005C000F0011124E30FF11DEC5CFC4F20834F5F21
:1005D0003F5F18C04423B1F0303110F4552319F0B7
:1005E000203279F43F2D20E1C29FF0011124E30F66
:1005F000F11DEC5CFC4F1082CF5F5D2F4D2F3D2F26
:1006000001C0512F0196861797078CF28C2F01C0DD
:100610008C2F332359F090E1899FF0011124E30FCF
:10062000F11DEC5CFC4F1082C1E0C80F65E671E083
:1006300084E393E00E940A10892B09F0B4C0C33010
:1006400009F0B1C069E671E084E493E00E940A1009
:10065000892BB9F484E593E00E94240F60930F0482
:1006600070931004809311049093120468E070E07A
:100670008BE691E016DF62E070E08EED91E011DF35
:10068000C4C164E771E084E493E00E940A10892BFE
:10069000B9F484E593E00E94240F609313047093EF
:1006A0001404809315049093160468E070E086E7C4
:1006B00091E0F7DE62E070E08EED91E0F2DEA5C140
:1006C0006FE771E084E493E00E940A10892BB9F48B
:1006D00084E593E00E94240F60931704709318043C
:1006E0008093190490931A0468E070E081E891E027
:1006F000D8DE62E070E08EED91E0D3DE86C160EA84
:1007000072E084E493E00E940A10892BB9F484E536
:1007100093E00E94240F60931B0470931C04809349
:100720001D0490931E0468E070E08AE891E0B9DE51
:1007300062E070E08EED91E0B4DE67C163E971E0E4
:1007400084E493E00E940A10892B31F56BE971E093
:1007500084E593E00E940A10892B41F48BE08BDD45
:1007600063E170E08FE991E09CDE4FC163EB71E0E3
:1007700084E593E00E940A10892B41F486E17BDD39
:1007800063E170E087EB91E08CDE3FC165E170E0F2
:100790008BEC91E086DE39C166E170E081EE91E09C
:1007A00080DE33C1C0E068EF71E084E393E00E9433
:1007B0000A10892B09F0DEC0C23009F0DBC069E005
:1007C00070E08DEF91E06DDE69E671E084E493E026
:1007D0000E940A10892B61F5EFE0F4E083818F938A
:1007E00082818F9381818F9380818F9387E092E0C4
:1007F0009F938F9384E193E09F938F930E94561071
:10080000EC0165E070E08CE092E04BDEBE0184E13B
:1008100093E047DE62E070E08EED91E042DE8DB75E
:100820009EB708960FB6F8949EBF0FBE8DBFEDC061
:1008300064E771E084E493E00E940A10892B61F57B
:10084000EFE0F4E087818F9386818F9385818F938A
:1008500084818F9387E092E09F938F9384E193E06C
:100860009F938F930E945610EC0165E070E082E147
:1008700092E017DEBE0184E193E013DE62E070E0F7
:100880008EED91E00EDE8DB79EB708960FB6F89408
:100890009EBF0FBE8DBFB9C06FE771E084E493E0E7
:1008A0000E940A10892B61F5EFE0F4E083858F93B5
:1008B00082858F9381858F9380858F9387E092E0E7
:1008C0009F938F9384E193E09F938F930E945610A0
:1008D000EC0165E070E088E192E0E3DDBE0184E1D7
:1008E00093E0DFDD62E070E08EED91E0DADD8DB760
:1008F0009EB708960FB6F8949EBF0FBE8DBF85C0F9
:1009000060EA72E084E493E00E940A10892B61F5AA
:10091000EFE0F4E087858F9386858F9385858F93AD
:1009200084858F9387E092E09F938F9384E193E097
:100930009F938F930E945610EC0165E070E08EE16A
:1009400092E0AFDDBE0184E193E0ABDD62E070E0F8
:100950008EED91E0A6DD8DB79EB708960FB6F894A0
:100960009EBF0FBE8DBF51C065E170E084E292E092
:1009700098DD4BC06AE372E084E393E00E940A10C2
:10098000892B59F4C13009F03BC080E074DC67E08A
:1009900070E08FE392E085DD38C067E472E084E3C5
:1009A00093E00E940A10892B59F5C13049F56DE09A
:1009B00070E08CE492E075DD6DE070E08AE592E035
:1009C00070DD66E170E088E692E06BDD6FE070E07C
:1009D0008FE792E066DD62E170E08FE892E061DD32
:1009E00062E270E082EA92E05CDD6CE270E085EC4D
:1009F00092E057DD6DE070E082EF92E052DD05C0DD
:100A000063E170E080E093E04CDDDF91CF911F91D6
:100A10000F91FF90089580937C008FEC80937A0073
:100A20007894089578941F920F920FB60F92112424
:100A3000CF92DF92EF92FF920F931F932F933F93EA
:100A40004F935F936F938F939F93AF93BF93F8945C
:100A500086E080937C0080917800282F30E08091A0
:100A60007900837090E040916C0350916D034E3F8C
:100A70005F4F28F010926D0310926C030AC04091F2
:100A80006C0350916D034F5F5F4F50936D03409324
:100A90006C0340915C0450915D044F5F5F4F509335
:100AA0005D0440935C04982F8827820F931F9093D6
:100AB0005B0480935A0400914F04109150042091DC
:100AC00051043091520468017901C80ED91EE11C0D
:100AD000F11CC0924F04D0925004E0925104F09265
:100AE00052044F3F534019F481E0809359047894A5
:100AF000BF91AF919F918F916F915F914F913F9176
:100B00002F911F910F91FF90EF90DF90CF900F905A
:100B10000FBE0F901F9018958FB78F778FBF80E60D
:100B200088B980E090E00196853322E89207D9F7F2
:100B300080EC88B980E090E00196853322E8920746
:100B4000D9F778940895CF92DF92EF92FF926B01DC
:100B50007C0120E030E04AE754E45AD718160CF440
:100B6000DBDF20E030E048E452E4C701B60101D603
:100B7000882344F40F2EC12CD12CF8E4EF2EF2E49C
:100B8000FF2EF02D20E030E048EC51E4C701B60123
:100B90008CD520E030E048E452E4EFD556D66152DF
:100BA00068B9FF90EF90DF90CF9008959AB1986B5D
:100BB0009AB95B9AE0E8F0E090819360908390812D
:100BC000906A908391E09093810080938900809354
:100BD000880080938B0080938A00E0EBF0E09081A6
:100BE00093609083908190689083E1EBF0E0908136
:100BF000916090838093B300089581E080936E00AC
:100C000016BC83E085BD08951F920F920FB60F9218
:100C100011248F939F93EF93FF93809169038F5FCC
:100C200080936903EAE7F0E08081806480834A99D9
:100C300009C080916A0390916B03019690936B03B6
:100C400080936A03FF91EF919F918F910F900FBE58
:100C50000F901F90189582E08093C00088E98093E0
:100C6000C10086E08093C20085E18093C4001092A9
:100C7000C50008951F920F920FB60F9211242F9363
:100C80003F934F935F936F937F938F939F93AF9314
:100C9000BF93EF93FF938091C00088238CF5209140
:100CA000C600422F50E080E090E00196813433E0AE
:100CB0009307D9F72093C6004D30510561F4E091B8
:100CC0000E04F0E0E15EFB4F108256DC10921F0430
:100CD00010920E0415C04F37510531F480910E0467
:100CE000815080930E040CC080910E04E82FF0E038
:100CF000E15EFB4F2083843218F48F5F80930E04F3
:100D0000FF91EF91BF91AF919F918F917F916F91E3
:100D10005F914F913F912F910F900FBE0F901F90B9
:100D200018951F920F920FB60F9211242F933F9395
:100D30008F939F93AF93BF93EF93FF932FB7F89445
:100D400080914D0490914E042FBF892B41F4109255
:100D5000C600E1ECF0E080818F7B80831AC0E3E481
:100D6000F4E0A281B3812D91B383A2838681978120
:100D7000A817B90721F484819581938382833FB7B3
:100D8000F894828593850197938782873FBF20934C
:100D9000C600FF91EF91BF91AF919F918F913F91CD
:100DA0002F910F900FBE0F901F901895289820E05C
:100DB00030E060E070E8299AAB01022E02C056953F
:100DC00047950A94E2F748235923452B11F02B9AB3
:100DD00001C02B9829982F5F3F4F2031310559F7DB
:100DE000289A0895E3E4F4E02FB7F8948EE693E0B0
:100DF0009183808393838283958384838EE094E0C0
:100E00009783868380EA90E0918780871386128695
:100E10002FBF21DFBBDA8823E9F3F8940B9A1BB8C4
:100E20005A9A87B18FEF87B984B18B6084B98AB140
:100E300082648AB987EE88B98FEF9FE0B7DF85E0DB
:100E4000EADDEAE7F0E080818064808380E090E082
:100E500001968A3121E49207D9F720917800809198
:100E60007900837090E0982F8827820F911D9093CE
:100E700054048093530486E0CEDD78948091000181
:100E800095DEBBDE81E0809364036894DD24D1F8B5
:100E90000F2EFAE0EF2EF02D0F2EFBE8FF2EF02D97
:100EA00002E010E0CFE0D4E080916A0390916B0300
:100EB0008139914004F1F894469A809100018A3F6B
:100EC00060F0D0920001459A8E2D9F2DA02FB12F5A
:100ED0000197A109B109E1F745988091000166DE0B
:100EE000469880910001875E8093000110926B0309
:100EF00010926A037894809159048823A9F2F89497
:100F000080914F0490915004A0915104B0915204EB
:100F1000BC01CD01052E5AE096958795779567958A
:100F20005A95D1F7502D60936004709361048093BB
:100F300062049093630410924F0410925004109234
:100F40005104109252041092590410925D041092B0
:100F50005C04ACD423E333E343E850E45DD520E004
:100F600030E040E85AE358D52B013C01609365031B
:100F700070936603809367039093680320E030E0EA
:100F800040E450E4ACD5288139814A815B8144D565
:100F90004B015C01A3019201C301B2013DD52C813B
:100FA0003D814E815F8138D59B01AC01C501B40103
:100FB0007CD34B015C01288539854A855B85C3015B
:100FC000B2012AD59B01AC01C501B4016ED32C85B9
:100FD0003D854E855F8569D3609364047093650495
:100FE0008093660490936704AEDD78945DCFA3E1AF
:100FF000B0E0ECEFF7E0F1C66C014B012A01FC0117
:1010000017821682838181FF29C3AE014F5F5F4F34
:101010003A01F6019381F40193FD859193FF81914B
:101020004F01882309F416C3853239F493FD859165
:1010300093FF81914F01853231F4B60190E0FED7E4
:1010400052012501E6CF10E0F12C20E02032A0F47F
:101050008B3269F030F4803259F0833269F42061C8
:101060002CC08D3239F0803339F4216026C02260E3
:10107000246023C0286021C027FD27C030ED380F31
:101080003A3078F426FF06C0FAE01F9F300D112495
:10109000132F13C04AE0F49E300D1124F32E20626A
:1010A0000CC08E3221F426FDD5C2206406C08C36D9
:1010B00011F4206802C0883641F4F40193FD859153
:1010C00093FF81914F018111C1CF9BEB980F93301A
:1010D00018F42061805E06C09BE9980F933008F0F9
:1010E00064C12F7E26FF16E02F73322E853619F449
:1010F0002064322E08C0863621F4F22FF0683F2E8D
:1011000002C01111115037FE07C01C3350F4EE24F9
:10111000E394E10E27E00BC0183038F027E017E029
:1011200005C027E04CE3E42E02C0212FE12C520140
:1011300044E0A40EB11CF20160817181828193812F
:101140000E2DA30184D62C01098100FF02C003FFEC
:1011500007C031FC08C032FE09C030E2232E07C0B0
:101160002DE2222E04C09BE2292E01C0212C802FCB
:101170008C7019F0211051C28DC237FE0FC0E40CE3
:1011800004FF04C08A81813309F4EA941E1474F5C3
:10119000F8E0FE1578F588E0E82E2CC036FC2AC071
:1011A000812F90E0841595059CF02CEF42162FEFCF
:1011B000520674F0432D4068342E0AC0E2E0F0E09D
:1011C000EC0FFD1FE10FF11D8081803319F41150E8
:1011D0001111F4CF37FE0EC0EE24E394E10E812FFF
:1011E00090E0481659062CF4141904C0EE24E39438
:1011F00001C010E037FE06C01414150434F4C20117
:10120000019605C085E090E002C081E090E02110E9
:101210000196112331F0212F30E02F5F3F4F820FD5
:10122000931F2F2D30E08217930714F4F81A01C092
:10123000F12C832D897041F4FF2031F0B60180E25A
:1012400090E0FCD6FA94F8CF222021F0B601822D4E
:1012500090E0F4D633FC08C0FF2031F0B60180E303
:1012600090E0ECD6FA94F8CF37FE58C0942D852D37
:1012700057FE02C090E080E0292E382E20E030E0BA
:10128000A2014E1951095D874C87A20142195309E9
:101290005F874E87612F70E044275527461B570B09
:1012A000598B488B5FEF2516350641F4B6018EE267
:1012B00090E02A8B3B8BC2D63B892A894214530487
:1012C0006CF04C855D854215530544F4EE85FF8531
:1012D000E20FF31FE60DF71D818101C080E351E0AD
:1012E000251A31082F5F3F4F488959892416350642
:1012F00044F0B60190E02A8B3B8BA0D62A893B892B
:10130000D1CF2414350439F49A81963318F49533E7
:1013100011F404FF81E3B60190E045C08A81813376
:1013200009F00F7EB60190E089D6111105C034FC9A
:1013300016C085E690E015C0B6018EE290E07ED63C
:1013400082E0EE24E394E80EF301E80FF11D8081C2
:10135000B60190E073D611508E2D99F7E8CF85E451
:1013600090E0B6016BD657FC05C04114510439F426
:1013700004FF05C05194419451088DE201C08BE2F5
:10138000B60190E05BD680E39AE0491651042CF058
:101390008F5F5AE0451A5108F7CFB60190E04ED65C
:1013A000B601C201C0964AD64CC1833631F08337AC
:1013B00079F0833509F054C020C05201E2E0AE0E4E
:1013C000B11CF2018081898301E010E0230113C088
:1013D0005201F2E0AF0EB11CF2014080518026FFB5
:1013E00003C0612F70E002C06FEF7FEFC2012A8B54
:1013F0001AD68C012A892F7714C05201F2E0AF0E61
:10140000B11CF2014080518026FF03C0612F70E0C3
:1014100002C06FEF7FEFC2012A8BF1D58C012A89C0
:101420002068322E23FD18C08F2D90E00817190771
:1014300098F4B60180E290E001D6FA94F5CFF2017B
:1014400037FC859137FE81912F01B60190E0F6D5EA
:10145000F110FA94015011090115110581F7F1C03D
:10146000843611F0893651F5520127FF09C0F4E0A6
:10147000AF0EB11CF20160817181828193810AC03B
:10148000F2E0AF0EB11CF20160817181072E000CF9
:10149000880B990B2F76322E97FF09C09095809577
:1014A000709561957F4F8F4F9F4F2068322E2AE0B5
:1014B00030E0A3011CD6E82EE6183EC0022F853787
:1014C00021F40F7E2AE030E01DC0097F8F3691F0B5
:1014D00018F4883559F0BEC0803719F0883711F0FC
:1014E000B9C0006104FF09C0046007C024FF08C040
:1014F000066006C028E030E005C020E130E002C010
:1015000020E132E0520107FF09C0F4E0AF0EB11C48
:10151000F201608171818281938108C0F2E0AF0E97
:10152000B11CF2016081718180E090E0A301DFD500
:10153000E82EE6180F77302E36FE0BC0332D3E7F97
:10154000E11650F434FE0AC032FC08C0332D3E7E52
:1015500005C00E2D332D03C00E2D01C0012F34FF09
:101560000CC0FE01EE0DF11D8081803311F4397E37
:1015700008C032FF05C00E5F04C0832F867809F0D3
:101580000F5F33FD12C030FF06C01E2D0F1518F47B
:101590001F0D101B0F2D0F1560F4B60180E290E0B7
:1015A0003B8B4CD50F5F3B89F6CF0F1510F4F01A2B
:1015B00001C0F12C34FF11C0B60180E390E03B8BF9
:1015C0003DD53B8932FF16C031FD03C088E790E06E
:1015D00002C088E590E0B6010CC0832F867851F0F8
:1015E00031FF02C08BE201C080E237FD8DE2B6011F
:1015F00090E024D5E11630F4B60180E390E01ED5EA
:101600001150F8CFEA94F301EE0DF11D8081B6017F
:1016100090E014D5E110F6CF14C0F4E0FF1548F5C2
:1016200084E0F81A33FE1DC0211024C003FF27C038
:101630000EEF10E0F32DF0713F2EF801849181112F
:1016400021C0FF2009F4FDCCB60180E290E0F6D481
:10165000FA94F7CFF6018681978123C08FEF9FEF31
:1016600020C0B60180E290E0E9D4FA94F110F9CFFD
:10167000DBCFF12CB601822D90E0E0D4D7CF02E091
:1016800011E0D8CF31108052B60190E0D7D40F5F6F
:101690001F4FD3CF23E02F1510F483E0C2CFF12CDE
:1016A000C5CF6396E2E1B5C35058BB27AA270ED039
:1016B00075C166D130F06BD120F031F49F3F11F449
:1016C0001EF45BC10EF4E095E7FB51C1E92F77D121
:1016D00080F3BA17620773078407950718F071F44F
:1016E0009EF58FC10EF4E0950B2EBA2FA02D0B01A5
:1016F000B90190010C01CA01A0011124FF27591B57
:1017000099F0593F50F4503E68F11A16F040A22F5C
:10171000232F342F4427585FF3CF469537952795CD
:10172000A795F0405395C9F77EF41F16BA0B620BCC
:10173000730B840BBAF09150A1F0FF0FBB1F661F13
:10174000771F881FC2F70EC0BA0F621F731F841F56
:1017500048F4879577956795B795F7959E3F08F07C
:10176000B3CF9395880F08F09927EE0F979587953B
:101770000895D9D008F481E008950CD00FC107D1A5
:1017800040F0FED030F021F45F3F19F0F0C051116D
:1017900039C1F3C014D198F39923C9F35523B1F398
:1017A000951B550BBB27AA2762177307840738F0D0
:1017B0009F5F5F4F220F331F441FAA1FA9F333D02F
:1017C0000E2E3AF0E0E830D091505040E695001CE3
:1017D000CAF729D0FE2F27D0660F771F881FBB1F9F
:1017E000261737074807AB07B0E809F0BB0B802D79
:1017F000BF01FF2793585F4F2AF09E3F510568F0C5
:10180000B6C000C15F3FECF3983EDCF38695779558
:101810006795B795F7959F5FC9F7880F911D9695C6
:10182000879597F90895E1E0660F771F881FBB1F22
:10183000621773078407BA0720F0621B730B840BCF
:10184000BA0BEE1F88F7E095089504D06894B111A3
:10185000D9C00895BCD088F09F5790F0B92F992730
:10186000B751A0F0D1F0660F771F881F991F1AF0AB
:10187000BA95C9F712C0B13081F0C3D0B1E0089574
:10188000C0C0672F782F8827B85F39F0B93FCCF3F5
:10189000869577956795B395D9F73EF490958095A1
:1018A000709561957F4F8F4F9F4F0895E89409C0C1
:1018B00097FB3EF490958095709561957F4F8F4F83
:1018C0009F4F9923A9F0F92F96E9BB279395F69599
:1018D000879577956795B795F111F8CFFAF4BB0F17
:1018E00011F460FF1BC06F5F7F4F8F4F9F4F16C07B
:1018F000882311F096E911C0772321F09EE8872F05
:10190000762F05C0662371F096E8862F70E060E0C0
:101910002AF09A95660F771F881FDAF7880F969539
:10192000879597F90895990F0008550FAA0BE0E8DD
:10193000FEEF16161706E807F907C0F01216130691
:10194000E407F50798F0621B730B840B950B39F4D1
:101950000A2661F0232B242B252B21F408950A2637
:1019600009F4A140A6958FEF811D811D089597F977
:101970009F6780E870E060E008959FEF80EC089535
:1019800000240A941616170618060906089500245E
:101990000A9412161306140605060895092E0394D8
:1019A000000C11F4882352F0BB0F40F4BF2B11F44C
:1019B00060FF04C06F5F7F4F8F4F9F4F089557FDAB
:1019C0009058440F551F59F05F3F71F04795880FAD
:1019D00097FB991F61F09F3F79F087950895121644
:1019E00013061406551FF2CF4695F1DF08C01616F0
:1019F00017061806991FF1CF8695710561050894A1
:101A00000895E894BB2766277727CB0197F90895B7
:101A10008ADF08F48FEF08950BD0C0CFB1DF28F034
:101A2000B6DF18F0952309F0A2CFA7CF1124EACF93
:101A3000C6DFA0F3959FD1F3950F50E0551F629F2D
:101A4000F001729FBB27F00DB11D639FAA27F00D17
:101A5000B11DAA1F649F6627B00DA11D661F829F3E
:101A60002227B00DA11D621F739FB00DA11D621F23
:101A7000839FA00D611D221F749F3327A00D611D40
:101A8000231F849F600D211D822F762F6A2F112422
:101A90009F5750408AF0E1F088234AF0EE0FFF1F75
:101AA000BB1F661F771F881F91505040A9F79E3FAC
:101AB000510570F05CCFA6CF5F3FECF3983EDCF3AE
:101AC000869577956795B795F795E7959F5FC1F7E9
:101AD000FE2B880F911D9695879597F90895FA0129
:101AE000EE0FFF1F30962105310599F16115710543
:101AF00061F48038BFE39B0749F168949038810511
:101B000061F08038BFEF9B0741F0992342F5FF3F1A
:101B1000E1053105210511F1E8940894E795D90113
:101B2000AA2329F4AB2FBE2FF85FD0F310C0FF5FBC
:101B300070F4A695E0F7F73950F019F0FF3A38F451
:101B40009F779F930CD00F9007FC905808953EF01C
:101B500014CF60E070E080E89FE308954FE79F773F
:101B60005F934F933F932F939ED02F913F914F912F
:101B70005F9152DF05C019F40EF0F9CE42CFFDCED1
:101B800026DFC8F39638C0F707F80F92E8942BE3E6
:101B90003AEA48EB5FE74EDF0F920F920F924DB794
:101BA0005EB70F92C0D0ECE7F0E016D04F915F9196
:101BB000EF91FF91E595EE1FFF1F49F0FE57E0689A
:101BC0004427EE0F441FFA95E1F74195550B32D0AB
:101BD0000F9007FE26C00895DF93CF931F930F93B6
:101BE000FF92EF92DF927B018C01689405C0DA2EA0
:101BF000EF011EDFFE01E894A591259135914591F5
:101C00005591AEF3EF0162DDFE019701A801DA9470
:101C100079F7DF90EF90FF900F911F91CF91DF91B7
:101C200008959B01AC0160E070E080E89FE3A5CDE2
:101C30009ECEACC0CCDEE8F39923D9F3940F511DAE
:101C4000BBF39150504094F059F0882332F0660F66
:101C5000771F881F91505040C1F79E3F510544F7B0
:101C6000880F911D9695879597F908955F3FACF081
:101C7000983E9CF0BB27869577956795B79508F4B5
:101C8000B1609395C1F7BB0F58F711F460FFE8CF2F
:101C90006F5F7F4F8F4F9F4FE3CFB4CE0EF076C074
:101CA0006CCE689464CE93DEC8F39923D1F3C6F367
:101CB000DF93CF931F930F93FF92C92FDD278823C4
:101CC0002AF02197660F771F881FDAF720E030E0AF
:101CD00040E85FEB9FE3883920F0803E30F02196AA
:101CE0008F77E3DCE4EAF0E003C0DFDCE1EDF0E075
:101CF00073DF8B01BE01EC01FB2E6F5771097595E7
:101D0000771F880B990BD4DD28E132E741E35FE3CD
:101D10008FDEAF2D9801AE01FF900F911F91CF91F3
:101D2000DF91D4DC3BCEFA01DC01AA0FBB1F9B0183
:101D3000AC01BF5728F422273327442750781FC00F
:101D4000B75188F4AB2F0024469537952795011C91
:101D5000A395D2F3002069F0220F331F441FB395DF
:101D6000DAF30DD0A1CC61307105A0E88A07B9463D
:101D700030F49B01AC01662777278827907830964E
:101D800021F0208331834283538308959F3F31F0B4
:101D9000915020F4879577956795B795880F911D99
:101DA0009695879597F90895A29FB001B39FC001BA
:101DB000A39F700D811D1124911DB29F700D811D77
:101DC0001124911D0895F0DFA59F900DB49F900DF3
:101DD000A49F800D911D112408952F923F924F9240
:101DE0005F926F927F928F929F92AF92BF92CF92AB
:101DF000DF92EF92FF920F931F93CF93DF93CDB7B4
:101E0000DEB7CA1BDB0B0FB6F894DEBF0FBECDBF2B
:101E100009942A88398848885F846E847D848C84FC
:101E20009B84AA84B984C884DF80EE80FD800C8105
:101E30001B81AA81B981CE0FD11D0FB6F894DEBFE8
:101E40000FBECDBFED01089566277727AEC12830BC
:101E500008F027E03327DA01990F311D87FD9160E3
:101E600000966105710539F432602E5F3D9330E3D1
:101E70002A95E1F708959F3F30F08038710561059C
:101E800009F03C5F3C5F3D93913008F08068911D04
:101E9000DF93CF931F930F93FF92EF92192F987FA9
:101EA0009695E92F96959695E90FFF27E05AFE4FF4
:101EB00099273327EE24FF24A701E7010590089412
:101EC000079428F4360FE71EF81E491F511D660FB0
:101ED000771F881F991F0694A1F70590079428F48F
:101EE000E70EF81E491F561FC11D770F881F991F47
:101EF000661F0694A1F70590079428F4F80E491F71
:101F0000561FC71FD11D880F991F661F771F069484
:101F1000A1F70590079420F4490F561FC71FD81F3B
:101F2000990F661F771F881F0694A9F78491109553
:101F3000177041F0D695C79557954795F794E79454
:101F40001A95C1F7E6E0F1E0689415901591359186
:101F50006591959105907FE27395E118F10A430B25
:101F6000560BC90BD009C0F7E10CF11E431F561FD9
:101F7000C91FD01D7EF4703311F48A95E6CFE89422
:101F8000015030F0080F0AF40027021708F4202F40
:101F90002395022F7A3328F079E37D932A95E9F788
:101FA00010C07D932A9589F6069497956795379585
:101FB00017951794E118F10A430B560BC90BD0097A
:101FC00098F023957E9173957A3308F070E37C93B3
:101FD0002013B8F77E9170617D9330F0839571E3A3
:101FE0007D9370E32A95E1F71124EF90FF900F9114
:101FF0001F91CF91DF91992787FD90950895FC015E
:102000000590615070400110D8F7809590958E0F23
:102010009F1F0895FB01DC018D9101908019011033
:10202000D9F3990B0895FC016150704001900110A3
:10203000D8F7809590958E0F9F1F08950F931F934B
:10204000CF93DF93FB01238121FD03C08FEF9FEF2F
:1020500028C022FF16C0468157812481358142174E
:10206000530744F4A081B1819D012F5F3F4F31831D
:1020700020838C93268137812F5F3F4F37832683C0
:1020800010C0EB01092F182F0084F185E02D099570
:10209000892BE1F68E819F8101969F838E83812F0C
:1020A000902FDF91CF911F910F910895AEE0B0E096
:1020B000EBE5F0E1A0CE0D891E8986E08C831A83C2
:1020C00009838FEF9FE79E838D83AE01475E5F4F4D
:1020D0006F89788DCE0101960E94F7072F81388590
:1020E000F801E20FF31F10822E96E4E0A0CEFA0171
:1020F000AA27283051F1203181F1E8946F936E7F47
:102100006E5F7F4F8F4F9F4FAF4FB1E03ED0B4E037
:102110003CD0670F781F891F9A1FA11D680F791F78
:102120008A1F911DA11D6A0F711D811D911DA11D89
:1021300020D009F468943F912AE0269F1124301999
:10214000305D3193DEF6CF010895462F4770405D34
:102150004193B3E00FD0C9F7F6CF462F4F70405DE3
:102160004A3318F0495D31FD4052419302D0A9F73E
:10217000EACFB4E0A6959795879577956795BA9538
:10218000C9F700976105710508959B01AC010A2EFE
:1021900006945795479537952795BA95C9F7620FD5
:1021A000731F841F951FA01D0895A0E0B0E0EAED05
:1021B000F0E117CEEC017B016115710519F0DB012F
:1021C0008D939C938E010F5F1F4F7880872D90E039
:1021D0003ED1892B11F0E801F5CFBDE27B1205C09D
:1021E0000F5F1F4F7980C1E008C0EBE27E1204C090
:1021F0008E010E5F1F4F7980C0E06801F1E0CF1AB9
:10220000D10843E050E068E072E0C60128D1892B94
:10221000E9F4680122E0C20ED11C45E050E063E021
:1022200072E0C6011CD1892B21F4680187E0C80E39
:10223000D11CE114F10419F0D701CD92DC92C11147
:10224000F9C060E070E080E89FE7FDC043E050E047
:1022500060E072E0C60103D1892B51F4E114F1046E
:1022600009F4EDC00E5F1F4FF70111830083E7C033
:10227000680160E070E0CB0100E010E0F601D0ED15
:10228000D70DDA3050F52C2F2260622E2C2F2870BB
:10229000C2FF05C0211127C00F5F1F4F24C022239A
:1022A00011F001501109A5E0B0E09B01AC018BDDFC
:1022B0004B015C01880C991CAA1CBB1CC501B40114
:1022C0006D0F711D811D911D6839A9E97A078A0773
:1022D000A9E19A0740F0C66005C0DE3F51F4C3FD96
:1022E00044C0C8606C2EBFEFCB1ADB0A7080C62DCD
:1022F000C5CF2D2F2F7D2531C1F540814D3211F4F1
:10230000C06106C04B3221F0319621E030E006C0BA
:102310003296D60111964C9122E030E0A0EDA40F48
:10232000AA3018F0E21BF30B20C040E050E0403828
:10233000BCE05B075CF49A01220F331F220F331FAE
:10234000420F531F440F551F4A0F511D3196DF0195
:1023500011972C91A0EDA20FAA3048F3C4FF03C03F
:10236000519541955109040F151FC1FF07C0E11494
:10237000F10421F03197D701ED93FC9397DAC37004
:10238000C33019F06B017C0106C06B017C01F7FAC8
:10239000F094F7F8F09420E030E0A901C701B6010D
:1023A000E8D9882309F443C017FF06C011950195A9
:1023B0001109CFE1D2E002C0C7E3D2E05E01B8E18B
:1023C000AB1AB1084601BE2DAF2D90E2E92EF12CDB
:1023D0000E151F057CF0FE01259135914591549114
:1023E000B4018B2F9A2F18DB4B01B82FA92F0E1990
:1023F0001F09EECF2497F594E794CA15DB0541F742
:102400006401EB2EFA2E8E2D880F8F2D881F8F3FA3
:1024100041F020E030E0A901C701B601AAD981113D
:1024200006C082E290E09093690480936804C7013B
:10243000B60109C060E070E080E89FEF04C060E092
:1024400070E080EC9FE7CDB7DEB7EEE0E6CC91110F
:102450001EC0803219F089508550D0F70895FB01D5
:10246000DC014150504088F08D9181341CF08B3557
:102470000CF4805E659161341CF06B350CF4605E89
:10248000861B611171F3990B0895881BFCCF992766
:1024900088270895DC01CB01FC01F999FECF06C025
:1024A000F2BDE1BDF89A319600B40D924150504012
:1024B000B8F70895DC01A40FB51F4150504040F01B
:1024C000CB01840F951F2E9105D041505040D8F775
:1024D0000895262FF999FECF92BD81BDF89A0197F4
:1024E00000B4021639F01FBA20BD0FB6F894FA9A5C
:1024F000F99A0FBE089502D0272F01C0262FF9990F
:10250000FECF1FBA92BD81BD20BD0FB6F894FA9AD6
:0C251000F99A0FBE01960895F894FFCFD1
:10251C00020A0D4744552064656620636F6566208A
:10252C006973207365740A0D000A0D5349502064B9
:10253C00656620636F6566206973207365740A0D88
:10254C00000A0D636F6566206973207365740A0D4C
:10255C00000A637263206F6B0A000A0D777269744C
:10256C006520706172616D730A0D0025640030780E
:10257C0025303458007365740041000A20697320BB
:10258C00410A0D0042000A20697320420A0D0043E3
:10259C00000A20697320430A0D000A206973204445
:1025AC000A0D0064656661756C7400676475000AD9
:1025BC000D2069732064656661756C7420676475A1
:1025CC000A0D00736970000A0D206973206465663A
:1025DC0061756C74207369700A0D000A0D20756E9C
:1025EC006B6E6F776E2064656661756C74200A0D76
:1025FC00000A0D20756E6B6E6F776E2070617261C4
:10260C006D657465720A0D0072656164000A697308
:10261C0020726561640A00252E3546000A0D413D85
:10262C0020000A0D423D20000A0D433D20000A0DFA
:10263C00443D20000A0D756E6B6E6F776E207061D5
:10264C0072616D657465720A0D0073617665000ABE
:10265C0073617665640A0068656C70000A0D5F5FD3
:10266C005F5F5F5F5F5F5F5F0D000A0D20434F4D43
:10267C004D414E4453200D000A0D20736574090A18
:10268C000D72656164090A0D736176650A0D000AA5
:10269C000D20504152414D4554455253200D000AD6
:1026AC000D20410A0D2042200A0D2043200A0D2046
:1026BC0044000A0D20546F207365742064656661B4
:1026CC00756C742073657474696E67732C207479DF
:1026DC0070653A0D000A0D2073657420646566619F
:1026EC00756C7420676475200A0D206F72200A0DBA
:1026FC00207365742064656661756C7420736970F1
:10270C000D000A0D5F5F5F5F5F5F5F5F5F0D0A002B
:10271C000A0D756E6B6E6F776E20636F6D6D616EEB
:04272C00640A0D002E
:00000001FF
