S00E0000535450574D332E7372656348
S11300003DC0000056C0000054C0000052C00000B3
S113001050C000004EC000004CC000004AC00000A8
S113002048C0000046C0000044C0000042C00000B8
S113003040C000003EC000003CC000003AC00000C8
S113004038C0000036C0000034C0000032C00000D8
S113005030C000002EC000002CC000002AC00000E8
S113006028C0000026C0000024C0000022C00000F8
S113007020C000001EC000001CC0000011241FBED0
S1130080CFEFD4E0DEBFCDBF11E0A0E0B1E0E2EFFE
S1130090F0E002C005900D92A030B107D9F721E03D
S11300A0A0E0B1E001C01D92A030B207E1F718D082
S11300B01EC0A6CF8FEF809364008093650080916B
S11300C06100833059F08FB7F8945F9350E85093F0
S11300D0610053E0509361005F918FBF08950895CC
S11300E0E9DFFDDF8FEF87B987EA88B9FFCFF8949E
S10500F0FFCF3C
S9030000FC
