:020000040000FA
:10000000700200106901000071010000730100001E
:100010007501000077010000790100000000000078
:100020000000000000000000000000007B01000054
:100030007D010000000000007F0100008101000040
:1000400083010000830100008301000083010000A0
:100050008301000083010000830100008301000090
:100060008301000083010000830100008301000080
:100070008301000083010000830100008301000070
:100080008301000083010000830100008301000060
:100090008301000083010000830100008301000050
:1000A0008301000083010000830100008301000040
:1000B0008301000083010000830100008301000030
:1000C00083010000830100008301000000F002F8BA
:1000D00000F03AF80AA090E8000C82448344AAF1A8
:1000E0000107DA4501D100F02FF8AFF2090EBAE8A6
:1000F0000F0013F0010F18BFFB1A43F0010318475C
:1001000084010000A4010000103A24BF78C878C11F
:10011000FAD8520724BF30C830C144BF04680C600D
:10012000704700000023002400250026103A28BF55
:1001300078C1FBD8520728BF30C148BF0B60704759
:100140001FB51FBD10B510BD00F065F81146FFF7D3
:10015000F7FF00F027F800F083F803B4FFF7F2FF91
:1001600003BC00F087F800000948804709480047B1
:10017000FEE7FEE7FEE7FEE7FEE7FEE7FEE7FEE757
:10018000FEE7FEE704480549034A054B70470000B7
:1001900039040000CD000000700000107002001053
:1001A0007000001010B51548006840F080401349F9
:1001B00008600846406840F0010048601048006848
:1001C00040F440200E49086000200E4908700120CC
:1001D000487000208870C870FF2088710120C871A5
:1001E000094801F061F80121074800F0FAFB0121FC
:1001F000054801F0F8F8002010BD000000C00240E2
:1002000000C00920000000100000014000BFFEE710
:10021000704770477047754600F028F8AE460500F5
:100220006946534620F00700854618B020B5FFF711
:10023000A9FFBDE820404FF000064FF000074FF047
:1002400000084FF0000B21F00701AC46ACE8C009F4
:10025000ACE8C009ACE8C009ACE8C0098D467047FD
:100260000446AFF300802046FFF777FF0048704751
:100270000C00001001491820ABBEFEE7260002006A
:100280007047000084140000000000100C00000003
:1002900008010000901400000C000010640200002F
:1002A0002401000000000000000000000000000029
:1002B000000000000000000000000000000000003E
:1002C000000000000000000000000000000000002E
:1002D000000000000000000000000000000000001E
:1002E000000000000000000000000000000000000E
:1002F000000000000000000000000000FFFFFFFF02
:100300007E480068C0F30160032864D17C4800681F
:1003100010F0030006D0012823D002283FD0032884
:1003200058D100E000BF75480068C0F30E0000F12E
:1003300001004FEA4000734900FB01F07249D1F817
:100340008810C1F3074101F10101B0FBF1F16F48E1
:100350000068C0B200F10100B1FBF0F06C49086028
:1003600038E066480068C0F30E0000F101004FEA73
:100370004000684900FB01F06349D1F88810C1F3DF
:10038000074101F10101B0FBF1F160480068C0B222
:1003900000F10100B1FBF0F05D4908601AE0574838
:1003A0000068C0F30E0000F101004FEA004156481A
:1003B000D0F88800C0F3074000F10100B1FBF0F174
:1003C00052480068C0B200F10100B1FBF0F05049A2
:1003D000086000BF2FE04A48006810F0030006D014
:1003E000012810D0022819D0032823D100E000BF33
:1003F00046480068C0B200F101004249B1FBF0F08C
:100400004349086016E041480068C0B200F10100AD
:100410004049B1FBF0F03E4908600BE03B48006802
:10042000C0B200F101004FF40041B1FBF0F03849D7
:10043000086000BF00BF704700203749086032489D
:10044000D0F8A00110F0200F05D000BF324800689E
:1004500010F0400FFAD003202C4908604FF4885068
:100460002949C1F8A8012D482D4908604FF0000026
:10047000234908602B482C4908604FF0AA002B49FB
:1004800008604FF0550008604FF0010028490860EF
:100490004FF0AA00254908604FF055001A49C1F8ED
:1004A0008C0000BF1548006810F0806FFAD0032060
:1004B0001F4908604FF0AA001349C1F88C004FF0A3
:1004C00055001A49086000BF0C48006810F0407FD2
:1004D000FAD007201749086017480B49C1F8C40033
:1004E0004FF000001549086044F23A0006490860E0
:1004F0004FF00000124908607047000088C00F40AC
:100500000CC10F4000093D0000C00F4004C10F4066
:1005100008000010001BB700A0C10F400004050038
:10052000ACC10F406300010084C00F408CC00F407D
:1005300080C00F4008C10F4042862927C8C10F4024
:1005400008ED00E010B50A46202801D2034601E07C
:10055000A0F120031946202814D2464B1B684FF007
:10056000030404FA01F423EA0403434CC4F8A83159
:10057000404B1B6802FA01F443EA04033E4CC4F802
:10058000A83113E03D4B1B684FF0030404FA01F45B
:1005900023EA0403384CC4F8AC31384B1B6802FA28
:1005A00001F443EA0403344CC4F8AC3110BD0146F5
:1005B000202903D20A462F4B186803E0A1F120023C
:1005C0002E4B186820FA02F303F00300704770B551
:1005D00006462B4804683046FFF7E9FF054635B16B
:1005E000012D06D0022D06D0032D08D105E00425EB
:1005F00005E0012503E0022501E0082500BF00BF5A
:10060000B4FBF5F4204670BD01290AD11D4A1268D9
:100610001D4B00EA030342EA0302174BC3F8C42050
:100620000AE049B9174A1268174B23EA000302EAA5
:100630000302114BC3F8C42070470020134908601F
:1006400030BF704704201249086008200F49086035
:1006500030BF704704200E49086009200B4908602C
:1006600030BF704704200A4908600320074908602A
:1006700030BF7047A8C10F4000C00F40ACC10F4051
:1006800008000010C4C00F40DEF7EFEFC0C00F40FD
:1006900010ED00E02DE9F04F87B004460D46002034
:1006A00006900590834604900027012003900020C7
:1006B000029081468246FE480190FE48844204D161
:1006C0000620FFF784FF059016E0FB48844204D122
:1006D0000820FFF77CFF05900EE0F848844204D123
:1006E0003020FFF774FF059006E0F548844203D1FF
:1006F0003220FFF76CFF0590059800090590012650
:100700003CE04FF0000830E00598704306EB08012C
:10071000B0FBF1F004900498B0FBF5F70498B0FB3F
:10072000F5F105FB1100B0EB550F00D97F1C022F2E
:1007300019D9B7F5803F16D20498B0FBF7FBAB454B
:1007400002D8A5EB0B0A01E0ABEB050A0198824544
:1007500009D20396CDF80880B946CDF804A0BAF1C5
:10076000000F00D104E008F10108B8F10F0FCBD958
:1007700000BFBAF1000F00D102E0761C0F2EC0D9E5
:1007800000BF05EB45006421B0FBF1F10198814207
:1007900032D9C948844216D1207B40F080002073B2
:1007A0004FEA1920207184F80090207B00F07F0030
:1007B0002073F021039801EA0010029901F00F0163
:1007C0000843A06216E0207B40F0800020734FEACF
:1007D0001920207184F80090207B00F07F002073A6
:1007E000F021039801EA0010029901F00F0108437B
:1007F00084F8280001200690069807B0BDE8F08F25
:1008000070B504460D46AB48844208D0AA488442DD
:1008100005D0AA48844202D0A948844200D103E00E
:10082000BF21A8A0FFF7F2FC687940B168790128E0
:1008300005D06879022802D06879032800D103E046
:10084000C021A0A0FFF7E2FCA87910B1A879012887
:1008500000D103E0C1219BA0FFF7D8FC287958B153
:100860002879012808D02879022805D0287903287A
:1008700002D02879042800D103E0C22191A0FFF71B
:10088000C5FC8C48844203D101210820FFF7BCFE3F
:100890008948844203D101211020FFF7B5FE874823
:1008A000844203D101210806FFF7AEFE844884424A
:1008B00003D101214806FFF7A7FE7F48844221D1DA
:1008C000072020720020207200E02678207D10F0A2
:1008D000010FFAD1802084F8300000BF207D10F095
:1008E000200FFBD0002084F830006060207320626D
:1008F000207484F84C0084F8540084F85000267E5C
:10090000267D18E0072020720020207200E0267863
:10091000207D10F0010FFAD1802084F8300000BF54
:10092000207D10F0200FFBD0002084F830006060A4
:1009300020732062267D6248844202D1002084F820
:10094000240020462968FFF7A5FE5B48844203D1B6
:10095000207B00F0C00602E0207B00F0C006687932
:1009600030B1012806D0022807D0032808D108E0BA
:1009700000BF09E046F0010606E046F0020603E08B
:1009800000BF46F0030600BF00BF2879C0B146F0A3
:1009900008062879012806D0022806D0032807D0A7
:1009A00004280BD107E000BF09E046F0100606E07E
:1009B00046F0200603E046F0300600E000BF00BF2E
:1009C000A87928B1012802D146F0040601E000BF51
:1009D00000BF00BF3848844201D1267300E026736F
:1009E00070BD70B504460D463248844208D0324886
:1009F000844205D03148844202D03148844200D13B
:100A000004E040F2DF312FA0FFF700FC0DB1012D13
:100A100000D104E04FF478712AA0FFF7F7FB012D15
:100A200010D12548844206D194F8300040F080006F
:100A300084F8300014E094F8300040F0800084F82E
:100A400030000DE01C48844205D194F830000020AD
:100A500084F8300004E094F83000002084F830007E
:100A600070BD10B504461348844208D01248844231
:100A700005D01248844202D01148844200D104E0DB
:100A800040F28B110FA0FFF7C1FB00212046FFF7BA
:100A9000A8FF0848844203D100210820FFF7B4FDD5
:100AA0000548844203D100211020FFF7ADFD21E06D
:100AB000A086010000C00040000001400080094005
:100AC00000C009402E2E5C7369705F6B65696C5CB9
:100AD0006C7063313778785F6C69625C736F7572C4
:100AE00063655C6C7063313778785F756172742E02
:100AF00063000000FC48844204D100214FF0807064
:100B0000FFF782FDF948844204D100214FF00070C4
:100B1000FFF77AFD10BD4FF41651016003214171BA
:100B2000002101718171704770B504460D46F0488F
:100B3000844208D0EF48844205D0EB48844202D07A
:100B4000EA48844200D105E040F2CF11AFF28C00B8
:100B5000FFF75CFBE748844201D1257000E0257077
:100B600070BD10B50446E248844208D0E148844292
:100B700005D0DD48844202D0DC48844200D105E043
:100B800040F2E711AFF2C400FFF740FBD9488442BE
:100B900001D1207810BD2078FCE72DE9FF5F804669
:100BA0008A46934657465C460398012824D100257F
:100BB0001FE04FF0FF3905E0B9F1000F00D106E06A
:100BC000A9F1010998F8140010F0200FF4D000BF2B
:100BD000B9F1000F00D10EE0102607E017F8011B55
:100BE0004046FFF7A1FF761E641E6D1C0EB1002C5F
:100BF000F4D1002CDDD117E0002512E098F81400A4
:100C000010F0200F00D10EE0102607E017F8011BAE
:100C10004046FFF789FF641E761E6D1C0EB1002C46
:100C2000F4D1002CEAD100BF284604B0BDE8F09F03
:100C30002DE9F05F0746894692469B464E4655464B
:100C4000BBF1010F1DD1002418E04FF0FF3805E083
:100C5000B8F1000F00D105E0A8F10108387D10F0CF
:100C6000010FF5D000BFB8F1000F00D108E0384601
:100C7000FFF777FF06F8010B6D1E641C002DE4D111
:100C800010E000240BE0387D10F0010F00D108E0E7
:100C90003846FFF766FF06F8010B641C6D1E002D39
:100CA000F1D100BF2046BDE8F09F10B50446904842
:100CB000844208D08F48844205D08B48844202D0B9
:100CC0008A48844200D105E040F27921AFF20C203D
:100CD000FFF79CFA8748844204D1207B40F0400013
:100CE000207303E0207B40F04000207310BD2DE90D
:100CF000F04104460D46164600277D48844208D040
:100D00007C48844205D07848844202D077488442A7
:100D100000D105E04FF42871AFF25820FFF776FAC2
:100D20000EB1012E00D105E040F2A121AFF26C20FE
:100D3000FFF76CFA072D15D2DFE805F00406080A64
:100D40000C0E110001270DE002270BE0042709E03B
:100D5000082707E0802705E04FF4807702E04FF492
:100D6000007700BF00BF6348844214D15DB1012DFC
:100D700009D0022D07D0052D05D0062D03D0032D57
:100D800001D0042D00D116E040F2BD21AFF2CC20FD
:100D9000FFF73CFA0FE03DB1012D05D0022D03D045
:100DA000052D01D0062D00D105E040F2C121AFF2A2
:100DB000EC20FFF72BFA012E0AD14E48844203D1D2
:100DC00060683843606013E06068384360600FE03B
:100DD0004848844206D1606840F28F31B9430840E8
:100DE000606005E0606840F20731B9430840606028
:100DF000BDE8F08110B504463D48844208D03D4826
:100E0000844205D03848844202D03848844200D118
:100E100005E040F2EF21AFF25430FFF7F7F9354823
:100E2000844201D1007D10BD207DFCE710B5044651
:100E30002F48844208D02F48844205D02A48844253
:100E400002D02A48844200D105E040F20631AFF2D8
:100E50008C30FFF7DBF9A06840F2CF31084010BDBD
:100E60000146087D10F0400F01D00020704701209E
:100E7000FCE770B506460C4600251D48864208D0A2
:100E80001C48864205D01848864202D01748864240
:100E900000D105E04FF44B71AFF2D830FFF7B6F94F
:100EA000E07840B1E078012805D0E078022802D04F
:100EB000E078032800D105E040F22D31AFF2FC309C
:100EC000FFF7A4F9A07810B1A078012800D105E0BF
:100ED00040F22E31AFF21440FFF798F9207810B1AC
:100EE0002078012808D10DE00080094000C00940A9
:100EF00000C000400000014040F22F31AFF23C4002
:100F0000FFF784F9607810B16078012800D105E01E
:100F10004FF44C71AFF25440FFF778F945F00105FA
:100F2000E07830B1012806D0022807D0032808D184
:100F300008E000BF09E045F0400506E045F0800507
:100F400003E000BF45F0C00500BF00BF6078012886
:100F500001D145F004052078012801D145F00205B2
:100F6000A078012801D145F00805FB48864203D14D
:100F700005F0CF00307202E005F0CF00307270BD96
:100F800000218170C17001210170417070472DE90D
:100F9000F04104460F461546F048844208D0EE481A
:100FA000844205D0EE48844202D0EE48844200D10B
:100FB00005E040F28731AFF2F440FFF727F90DB1B9
:100FC000012D00D105E04FF46271AFF20850FFF738
:100FD0001DF90026012D09D13878012801D146F0EC
:100FE00002067878012801D146F00406DA488442E6
:100FF00015D1012D10D1207B40F0800020730020FE
:1010000020702071207B20F0800020731020A062CF
:1010100046F00100206218E00020206215E0012D5A
:1010200011D1207B40F080002073002020702071BF
:10103000207B20F080002073102084F8280046F0E8
:101040000100206201E000202062BDE8F08170B55F
:1010500004460D46C148844208D0BF48844205D0AA
:10106000BF48844202D0BF48844200D105E04FF41B
:101070007271AFF2B050FFF7C9F8B748844203D19C
:10108000206A2843206202E0206A2843206270BD63
:1010900070B504460D46B348844200D105E040F2E5
:1010A0000941AFF2E050FFF7B1F80DB1012D00D1C9
:1010B00005E040F20A41AFF2F450FFF7A7F8012D26
:1010C00006D194F8240040F0020084F8240006E0E1
:1010D0002DB994F8240000F03D0084F8240070BD80
:1010E00070B504460D469F48844200D105E040F2A9
:1010F0002141AFF23060FFF789F80DB1012D00D129
:1011000005E040F22241AFF24460FFF77FF8012D85
:1011100006D194F8240040F0010084F8240005E092
:1011200094F8240000F03E0084F8240070BD2DE9FE
:10113000F04105460C468B48854200D105E040F25F
:101140004241AFF28060FFF761F86CB1012C0BD027
:10115000022C09D0032C07D0042C05D0052C03D079
:10116000062C01D0072C00D105E040F24341AFF23C
:10117000AC60FFF74BF86007870E95F8240020F06D
:10118000380647F00400064306F03F0085F82400C7
:10119000BDE8F0812DE9F04104460D4616460027D2
:1011A0006D48844200D105E040F26241AFF2EC604C
:1011B000FFF72CF80DB1012D00D105E040F263419D
:1011C000AFF20070FFF722F80EB1012E00D105E05A
:1011D00040F26441AFF21470FFF718F815B1012D19
:1011E00004D101E0012702E0022700E000BF00BFB8
:1011F000012E03D1207C3843207404E0207CF321AD
:10120000B94308402074BDE8F0812DE9F04104465F
:101210000D46164600275048844200D105E040F2B2
:101220008A41AFF26070FEF7F1FF1DB1012D01D0D0
:10123000022D00D105E040F28B41AFF27870FEF74D
:10124000E5FF0EB1012E00D105E040F28C41AFF276
:101250008C70FEF7DBFF25B1012D04D0022D06D1E5
:1012600003E0102704E0402702E0802700E000BFF1
:1012700000BF012E03D1207C3843207404E0207C81
:10128000F321B94308402074BDE8F08110B504464D
:101290003148844200D105E040F2B541AFF2DC7044
:1012A000FEF7B4FF207E10BD70B506460C462A48F6
:1012B000864200D105E040F2C941AFF2F870FEF776
:1012C000A5FFA07810B1A078012800D105E040F278
:1012D000CA41AFF61000FEF799FFE07810B1E07850
:1012E000012800D105E040F2CB41AFF62800FEF71F
:1012F0008DFFE079FF2800DA05E040F2CC41AFF63F
:101300003C00FEF783FF607910B16079012800D1BD
:1013100005E040F2CD41AFF65400FEF777FF2079AB
:1013200010B12079012800D105E040F2CE41AFF69E
:101330006C00FEF76BFFA079FF2800DA05E040F2B1
:10134000CF41AFF68000FEF761FF207810B1207822
:10135000012809D10EE000000000014000C000405B
:101360000080094000C009404FF49A61AFF6AC001C
:10137000FEF74CFF607810B16078012800D105E0DD
:1013800040F2D141AFF6C400FEF740FF0025E078FF
:1013900001280ED145F010056079012801D145F0F2
:1013A00020052079012801D145F00805E07986F86B
:1013B00054002078012801D145F00105A0780128CA
:1013C00004D145F00405A07986F85000607808B98A
:1013D00045F0020505F03F0086F84C00307B40F0F8
:1013E0003800307370BD012906D190F84C2022F0EE
:1013F000020280F84C2005E090F84C2042F00202F6
:1014000080F84C2070472DE9F04704468946924603
:101410001F469FB1257BA84628F0100884F80C8051
:101420000123524649462046FFF7B7FB064600BF58
:10143000207D10F0400FFBD025730BE001235246B6
:1014400049462046FFF7A9FB064600BF207D10F065
:10145000400FFBD03046BDE8F08713B504460123AA
:101460001A4601A92046FFF7CEFF1CBD70B5044601
:101470000D4616460023324629462046FFF7C3FF95
:1014800070BD0000000000000000000000E1F50554
:04000005000000CD2A
:00000001FF
