:020000040000FA
:1000000098020010690100007101000073010000F6
:100010007501000077010000790100000000000078
:100020000000000000000000000000007B01000054
:100030007D010000000000007F0100008101000040
:1000400083010000830100008301000083010000A0
:100050008301000083010000830100008301000090
:100060008301000083010000830100008301000080
:100070008301000083010000830100008301000070
:100080008301000083010000830100008301000060
:10009000830100004108000083010000830100008B
:1000A0008301000083010000830100008301000040
:1000B0008301000083010000830100008301000030
:1000C00083010000830100008301000000F002F8BA
:1000D00000F03AF80AA090E8000C82448344AAF1A8
:1000E0000107DA4501D100F02FF8AFF2090EBAE8A6
:1000F0000F0013F0010F18BFFB1A43F0010318475C
:10010000E410000004110000103A24BF78C878C140
:10011000FAD8520724BF30C830C144BF04680C600D
:10012000704700000023002400250026103A28BF55
:1001300078C1FBD8520728BF30C148BF0B60704759
:100140001FB51FBD10B510BD01F017F81146FFF720
:10015000F7FF00F0BAFA01F035F803B4FFF7F2FF49
:1001600003BC01F039F800000948804709480047FE
:10017000FEE7FEE7FEE7FEE7FEE7FEE7FEE7FEE757
:10018000FEE7FEE704480549034A054B70470000B7
:100190009D090000CD00000098000010980200109A
:1001A0009800001010B50A46202801D2034601E04D
:1001B000A0F120031946202814D2464B1B684FF0AB
:1001C000030404FA01F423EA0403434CC4F8A831FD
:1001D000404B1B6802FA01F443EA04033E4CC4F8A6
:1001E000A83113E03D4B1B684FF0030404FA01F4FF
:1001F00023EA0403384CC4F8AC31384B1B6802FACC
:1002000001F443EA0403344CC4F8AC3110BD014698
:10021000202903D20A462F4B186803E0A1F12002DF
:100220002E4B186820FA02F303F00300704770B5F4
:1002300006462B4804683046FFF7E9FF054635B10E
:10024000012D06D0022D06D0032D08D105E004258E
:1002500005E0012503E0022501E0082500BF00BFFD
:10026000B4FBF5F4204670BD01290AD11D4A12687D
:100270001D4B00EA030342EA0302174BC3F8C420F4
:100280000AE049B9174A1268174B23EA000302EA49
:100290000302114BC3F8C4207047002013490860C3
:1002A00030BF704704201249086008200F490860D9
:1002B00030BF704704200E49086009200B490860D0
:1002C00030BF704704200A490860032007490860CE
:1002D00030BF7047A8C10F4000C00F40ACC10F40F5
:1002E00004000010C4C00F40DEF7EFEFC0C00F40A5
:1002F00010ED00E000BFFEE770470000FFFFFFFFCA
:1003000000E0401E0028FCD1704700BFFE48C068D6
:1003100010F0100FFAD1704770B50446FB48C06961
:1003200040F48010F949C8612146F74800F0D1FC3B
:10033000FFF7EBFF4FF47A70FFF7E2FF04E0F248BB
:1003400000F0D9FCF2490870EF48C06810F0040FC3
:10035000F5D10021EC4800F0BCFCFFF7D6FF4FF4CC
:100360007A70FFF7CDFFE84800F0C5FCC5B2E7485A
:10037000806940F48010E5498861284670BD3EB52B
:1003800004E0E14800F0B7FCE1490870DE48C068CD
:1003900010F0040FF5D100242020FFF7BDFF0DF869
:1003A0000400641C2120FFF7B7FF0DF80400641C53
:1003B0002220FFF7B1FF0DF80400641C2320FFF793
:1003C000ABFF0DF80400641C2420FFF7A5FF0DF817
:1003D0000400641C2520FFF79FFF0DF80400641C37
:1003E0002A20FFF799FF0DF80400641C0220FFF794
:1003F00093FF0DF80400641C0320FFF78DFF0DF838
:100400000400641C0420FFF787FF0DF80400641C3F
:100410003EBD70B504460D46BC48C06940F480102E
:10042000BA49C86104F18001B74800F052FCFFF7F7
:100430006CFF04E0B44800F05EFCB5490870B248B7
:10044000C06810F0040FF5D14FF47A70FFF758FF31
:100450002946AD4800F03DFCFFF757FF04E0AA48ED
:1004600000F049FCAA490870A748C06810F0040FC2
:10047000F5D1A648806940F48010A449886170BD18
:1004800010B501210720FFF7C4FF0320FFF744FF49
:100490009F4908700420FFF73FFF9D49087017210E
:1004A0007E20FFF7B6FF03210820FFF7B2FF0021EF
:1004B0000820FFF7AEFF05210720FFF7AAFF022162
:1004C0000520FFF7A6FF10BD10B501210720FFF79B
:1004D000A0FF10BD10B58D48C06940F480108B4955
:1004E000C861AA21884800F0F4FB42F21070FFF7BF
:1004F00007FF854800F0FFFBC4B28448806940F4E0
:10050000801082498861204610BD10B5FFF7DCFFDE
:100510004CF25030FFF7F4FEFFF7B2FF10BD70B59C
:100520000320FFF7F9FE04460420FFF7F5FE054619
:1005300000210620FFF76DFF01210720FFF769FF6B
:100540007F210920FFF765FF05210A20FFF761FFE2
:10055000F5210B20FFF75DFFEF210C20FFF759FF7E
:1005600000210D20FFF755FF00210E20FFF751FF5E
:1005700070210F20FFF74DFF00211020FFF749FFEA
:1005800000211220FFF745FF00211320FFF741FF54
:1005900020217020FFF73DFF1D211C20FFF739FFB0
:1005A00040211D20FFF735FF08211E20FFF731FFF6
:1005B000A1212020FFF72DFF20212120FFF729FF77
:1005C0004E212220FFF725FFA5212320FFF721FF41
:1005D00000212420FFF71DFF0A212520FFF719FF26
:1005E0001E212A20FFF715FF29212C20FFF711FFDC
:1005F00004212D20FFF70DFF29212E20FFF709FFF1
:1006000041213020FFF705FFFF213220FFF701FFD6
:1006100042213320FFF7FDFE40213420FFF7F9FE91
:1006200020213520FFF7F5FE2D213620FFF7F1FEC2
:10063000D4213720FFF7EDFE00213820FFF7E9FE37
:1006400000213920FFF7E5FE73213F20FFF7E1FE8F
:100650006F214020FFF7DDFE6E214120FFF7D9FE1C
:1006600067214220FFF7D5FEFF214320FFF7D1FE8F
:10067000FF214420FFF7CDFEFF214520FFF7C9FEF3
:10068000FF214620FFF7C5FE00217920FFF7C1FEBC
:1006900000217A20FFF7BDFE22217120FFF7B9FE6D
:1006A00000217320FFF7B5FE00217420FFF7B1FE93
:1006B00053217520FFF7ADFE64217620FFF7A9FED8
:1006C00000217720FFF7A5FE70BD1248006840F4B6
:1006D00000101149C1F8C4000846D0F8AC0140F43C
:1006E0008060C1F8AC010D48006840F000400B4943
:1006F00008600846406840F02800486003480068E9
:1007000040F4801001490BE00080084000C009203F
:1007100000000010C4C00F4000C00F4000C00240E5
:1007200008604848406C4749486447484749486121
:100730004FF00000486088604FF0070008604FF0FD
:1007400000000861C860424800F0EFF9012140480C
:1007500000F057FA62B63F48D0F8940040F4002009
:100760003C49C1F894000846D0F8900040F40020BD
:10077000C1F8900015200121814042094FF0E0238B
:1007800003EB8202C2F8001100BF3348806940F4D5
:100790008010314988613148FFF7B2FD2F48FFF7DB
:1007A000AFFD2E48FFF7ACFD2C48FFF7A9FD2B4805
:1007B000FFF7A6FD2948FFF7A3FD2848FFF7A0FD96
:1007C0002648FFF79DFD2548FFF79AFDFFF7D7FD67
:1007D0001D48FFF795FDFFF7A2FE1B48FFF790FDB0
:1007E000FFF793FEFFF7CBFD29E01B48406910F4AB
:1007F000002F22D17F20FFF78FFD002504E0FFF7B7
:1008000069FE174948556D1C112DF8DB00240020A6
:1008100003E01349095C0C44401C1128F9DB104823
:10082000007CA04206D10E480078302802D1FFF7A4
:100830004BFE01E0FFF724FE01E0FFF7A0FDD4E747
:100840000020704700C00240A08601000800001090
:10085000008008400080024000C0092040420F0094
:10086000200000107E480068C0F30160032864D1B6
:100870007C48006810F0030006D0012823D002282D
:100880003FD0032858D100E000BF75480068C0F38E
:100890000E0000F101004FEA4000734900FB01F037
:1008A0007249D1F88810C1F3074101F10101B0FB91
:1008B000F1F16F480068C0B200F10100B1FBF0F047
:1008C0006C49086038E066480068C0F30E0000F12B
:1008D00001004FEA4000684900FB01F06349D1F88C
:1008E0008810C1F3074101F10101B0FBF1F160484B
:1008F0000068C0B200F10100B1FBF0F05D49086092
:100900001AE057480068C0F30E0000F101004FEAFA
:1009100000415648D0F88800C0F3074000F10100BC
:10092000B1FBF0F152480068C0B200F10100B1FB28
:10093000F0F05049086000BF2FE04A48006810F00E
:10094000030006D0012810D0022819D0032823D193
:1009500000E000BF46480068C0B200F10100424913
:10096000B1FBF0F04349086016E041480068C0B2AE
:1009700000F101004049B1FBF0F03E4908600BE096
:100980003B480068C0B200F101004FF40041B1FBE8
:10099000F0F03849086000BF00BF704700203749B9
:1009A00008603248D0F8A00110F0200F05D000BF39
:1009B0003248006810F0400FFAD003202C4908603C
:1009C0004FF488502949C1F8A8012D482D490860E5
:1009D0004FF00000234908602B482C4908604FF075
:1009E000AA002B4908604FF0550008604FF0010045
:1009F000284908604FF0AA00254908604FF05500CB
:100A00001A49C1F88C0000BF1548006810F0806FCB
:100A1000FAD003201F4908604FF0AA001349C1F81B
:100A20008C004FF055001A49086000BF0C48006860
:100A300010F0407FFAD007201749086017480B498B
:100A4000C1F8C4004FF000001549086044F23A00B4
:100A5000064908604FF00000124908607047000026
:100A600088C00F400CC10F4000093D0000C00F407E
:100A700004C10F4004000010001BB700A0C10F40CC
:100A800000040500ACC10F406300010084C00F40AA
:100A90008CC00F4080C00F4008C10F4042862927FC
:100AA000C8C10F4008ED00E02DE9F0470446884634
:100AB000F848844202D0F848844200D103E03D2146
:100AC000F6A0FFF717FCF348844204D12A20FFF771
:100AD000AEFB074609E0F048844204D11420FFF73A
:100AE000A6FB074601E0BDE8F08700254FF0FF397F
:100AF00002260AE0681C7043B7FBF0F9C14504D92F
:100B00006D1CFF2D01D90025B61CC145F2D8206807
:100B1000C0B2206020684FF6FF7101EA052108434A
:100B20002060F0B2206100BFDDE770B504460D46DD
:100B3000D848844202D0D848844200D103E07B21C7
:100B4000D6A0FFF7D7FBD348844204D10121480542
:100B5000FFF78AFB08E0D048844204D10121001548
:100B6000FFF782FB00E070BDA88829890843298A25
:100B700008432988084386B22660287B00F00F06C8
:100B8000666020466969FFF78FFF00BFEBE710B58D
:100B90000446C048844202D0BF48844200D103E0EA
:100BA000A221BEA0FFF7A6FBBA48844205D10021CE
:100BB0004FF40010FFF758FB06E0B748844203D11A
:100BC00000210015FFF750FB10BD10B50446B148D9
:100BD000844202D0B048844200D103E0BA21AFA0E1
:100BE000FFF788FB206800F00F0010BD0021416076
:100BF0008160B6494161072101600021C160016146
:100C0000704770B504460D46A248844202D0A248FF
:100C1000844200D103E0DF21A0A0FFF76BFB0DB100
:100C2000012D00D103E0E0219CA0FFF763FB012D23
:100C300004D1606840F00200606003E0606800F08A
:100C40000D00606070BD70B504460D469148844249
:100C500002D09148844200D103E0F8218FA0FFF731
:100C600049FB0DB1012D00D103E0F9218BA0FFF765
:100C700041FB012D04D1606840F00100606003E099
:100C8000606800F00E00606070BD70B504460D46EF
:100C90008048844202D08048844200D104E04FF46E
:100CA0008A717EA0FFF726FB0DB1012D00D104E073
:100CB00040F2151179A0FFF71DFB012D04D16068EA
:100CC00000F00700606003E0606840F008006060CA
:100CD00070BD70B504460D466E48844202D06E4821
:100CE000844200D104E04FF497716CA0FFF702FB3F
:100CF000A8B2A06070BD10B504466648844202D018
:100D00006548844200D104E04FF49F7163A0FFF76F
:100D1000F1FAA06880B210BD2DE9FC5F06460C46D2
:100D200091464FF0000AD346002001900090E06009
:100D30006060606103E03046FFF7DDFF0746F06862
:100D400010F0040FF7D1032030623046FFF73DFF6B
:100D5000082801DD012500E00025B9F1000F7AD156
:100D600025B9D4F808A0D4F800B003E0A068019039
:100D70002068009060E0F06810F0020F2ED021692A
:100D8000606888422AD0206888B93DB9FF21304682
:100D9000FFF79FFF6068401C60601FE04FF6FF7127
:100DA0003046FFF796FF6068801C606016E055B91A
:100DB0009BF800103046FFF78CFF0BF1010B6068C9
:100DC000401C60600AE0009801883046FFF781FF10
:100DD0000098801C00906068801C6060D6F81880C5
:100DE00018F0010F06D048F4007060614FF0FF303A
:100DF000BDE8FC9F18E03046FFF77DFF0746A0687E
:100E000050B125B98AF800700AF1010A04E001988E
:100E100007800198801C01901DB9E068401CE060CB
:100E200002E0E068801CE060F06810F0040F03D07E
:100E3000D4E903018842DED12169606888429AD1F1
:100E4000D4E90301884296D14FF480706061206834
:100E500010B16068CCE705E0A06808B1E068C7E7BA
:100E60000020C5E7B9F1010F7ED170E0206878BBA2
:100E70003DB9FF213046FFF72CFF6068401C6060E1
:100E80003BE04FF6FF713046FFF723FF6068801CA0
:100E9000606032E000800840000003402E2E5C734A
:100EA00069705F6B65696C5C6C7063313778785F13
:100EB0006C69625C736F757263655C6C706331370B
:100EC00078785F7373702E630000000040420F005B
:100ED000FFE74DB9D4E90002815C3046FFF7F9FE27
:100EE0006068401C606008E0D4E90002815A304626
:100EF000FFF7EFFE6068801C6060D6F8188018F07D
:100F0000010F05D048F4007060614FF0FF306FE7CB
:100F100015E03046FFF7EFFE0746A06838B11DB96F
:100F2000D4E902128F5402E0D4E902128F521DB9A3
:100F3000E068401CE06002E0E068801CE060F0686F
:100F400010F0040F03D0D4E903018842E1D1F06826
:100F500010F0020F03D021696068884286D1D4E97D
:100F60000301884205D100E00BE0216960688842F6
:100F700002D00F20706102E04FF4807060610020A9
:100F800036E74FF0FF3033E770B505460C4677483B
:100F9000854202D07648854200D105E040F20E211C
:100FA000AFF20810FFF7A6F9012C07D0022C05D0EC
:100FB000042C03D0082C01D0102C00D105E040F205
:100FC0000F21AFF22810FFF795F9E868204201D011
:100FD000012070BD0020FCE770B504460D461646A2
:100FE0006248844202D06248844200D105E040F267
:100FF0002621AFF25810FFF77DF9012E03D1606969
:101000002843606104E060690F21A94308406061E2
:1010100070BD70B505460C465448854202D0544810
:10102000854200D105E040F24321AFF29010FFF776
:1010300061F9012C05D0022C03D0042C01D0082C1E
:1010400000D105E04FF41171AFF2B010FFF752F983
:10105000A869204201D0012070BD0020FCE710B536
:1010600004464248844202D04148844200D105E00F
:1010700040F25221AFF2DC10FFF73CF9A06910BD3D
:1010800070B505460C463948854202D0384885423D
:1010900000D105E040F26721AFF20020FFF72AF906
:1010A000012C05D0022C03D0042C01D0082C00D137
:1010B00005E04FF41A71AFF21C20FFF71BF9E86945
:1010C000204201D0012070BD0020FCE770B504462D
:1010D0000D462648844202D02548844200D105E0CE
:1010E00040F27B21AFF24C20FFF704F9012D01D033
:1010F000022D00D105E04FF41F71AFF26020FFF721
:10110000F9F8256270BD70B504460D4616461748BD
:10111000844202D01648844200D105E040F2912179
:10112000AFF28820FFF7E6F8022D01D0012D00D1A3
:1011300005E040F29221AFF29C20FFF7DBF80EB100
:10114000012E00D105E040F29321AFF2B020FFF76D
:10115000D1F8012E03D1606A2843606204E0606A1E
:101160000321A9430840606270BD00000080084070
:1011700000000340704770477047754600F028F83C
:10118000AE4605006946534620F00700854618B074
:1011900020B5FEF7F7FFBDE820404FF000064FF006
:1011A00000074FF000084FF0000B21F00701AC469C
:1011B000ACE8C009ACE8C009ACE8C009ACE8C009BB
:1011C0008D4670470446AFF300802046FEF7C5FF0A
:1011D000004870473400001001491820ABBEFEE7FC
:1011E00026000200041200000000001008000000A9
:1011F000080100000C12000008000010900200001E
:0C120000240100000000000000E1F505E2
:04000005000000CD2A
:00000001FF
