:020000040800F2
:10000000B80C002089010008910100089301000844
:100010009501000897010008990100080000000000
:100020000000000000000000000000009B0100082C
:100030009D010008000000009F010008A1010008C8
:10004000CF2B0008D51A0008D11E0008871D000814
:10005000AD0B0008111D0008D50A0008D90A0008D8
:10006000DB0A0008DD0A0008DF0A0008950A00081C
:10007000970A0008990A00089B0A00089D0A0008D0
:100080009F0A0008A10A000877030008A3010008DE
:10009000A3010008A3010008A3010008E10A000869
:1000A000D31E0008D91E0008D71E0008D51E000860
:1000B000312400083324000800000000DB10000891
:1000C000D91000080000000000000000891D000891
:1000D0000000000065260008912A000800000000CA
:1000E000D70A0008851D0008CD2B000800F002F893
:1000F00000F03AF80AA090E8000C82448344AAF188
:100100000107DA4501D100F02FF8AFF2090EBAE885
:100110000F0013F0010F18BFFB1A43F0010318473B
:10012000083B0000283B0000103A24BF78C878C183
:10013000FAD8520724BF30C830C144BF04680C60ED
:10014000704700000023002400250026103A28BF35
:1001500078C1FBD8520728BF30C148BF0B60704739
:100160001FB51FBD10B510BD00F0CFF81146FFF749
:10017000F7FF02F02DFD00F0EDF803B4FFF7F2FFFA
:1001800003BC00F0F1F80000094880470948004727
:10019000FEE7FEE7FEE7FEE7FEE7FEE7FEE7FEE737
:1001A000FEE7FEE704480549054A064B7047000094
:1001B000711E0008ED000008B8060020B80C0020F1
:1001C000B8080020B8080020032A40F2308010F060
:1001D000030C00F0158011F8013BBCF1020F6244E2
:1001E00098BF11F801CB00F8013B38BF11F8013B73
:1001F000A2F1040298BF00F801CB38BF00F8013B20
:1002000011F0030300F04F80083AC0F0088051F865
:10021000043B083A51F804CBA0E80810F5E7121D9A
:100220005CBF51F8043B40F8043BAFF30080D207B9
:1002300024BF11F8013B11F801CB48BF11F8012B85
:1002400024BF00F8013B00F801CB48BF00F8012BA8
:1002500070474FF0000200B5134694469646203989
:1002600022BFA0E80C50A0E80C50B1F12001BFF46F
:10027000F7AF090728BFA0E80C5048BF0CC05DF8D5
:1002800004EB890028BF40F8042B08BF704748BF23
:1002900020F8022B11F0804F18BF00F8012B704797
:1002A00070477047704710B5203AC0F00B80B1E836
:1002B0001850203AA0E81850B1E81850A0E818509B
:1002C000BFF4F5AF5FEA027C24BFB1E81850A0E8A4
:1002D000185044BF18C918C0BDE810405FEA827CBE
:1002E00024BF51F8043B40F8043B08BF7047D207D5
:1002F00028BF31F8023B48BF11F8012B28BF20F876
:10030000023B48BF00F8012B7047754600F028F803
:10031000AE4605006946534620F00700854618B0F2
:1003200020B5FFF73FFFBDE820404FF000064FF03B
:1003300000074FF000084FF0000B21F00701AC461A
:10034000ACE8C009ACE8C009ACE8C009ACE8C00939
:100350008D4670470446AFF300802046FFF70DFF3F
:10036000004870475806002001491820ABBEFEE740
:10037000260002007047704721B1826842F00102F6
:10038000826003E0826822F00102826070470146C9
:1003900000208A6812F0040F01D0012000E0002044
:1003A00070470146C86C80B27047014600208A68D9
:1003B00012F0080F01D0012000E00020704700007B
:1003C00030B502460020002350680F4C20400D79C4
:1003D0000C6844EA05242043506090680B4C204090
:1003E000D1E902542C434D7944EA450420439060FE
:1003F000D06A20F470000C7C641EE4B2234340EA0F
:100400000350D06230BD0000FFFEF0FFFDF7F1FFAA
:10041000F0B504460D4600200021092D11DDE068ED
:10042000A5F10A0606EB4607072606FA07F18843F8
:10043000A5F10A0606EB460603FA06F10843E0605A
:100440000CE0206905EB4507072606FA07F188430B
:1004500005EB450603FA06F108432061072A0FDA87
:10046000606B561E06EB86071F2606FA07F18843C7
:10047000561E06EB860605FA06F10843606322E085
:100480000D2A0FDA206BD61F06EB86071F2606FA09
:1004900007F18843D61F06EB860605FA06F10843E6
:1004A000206310E0E06AA2F10D0606EB86071F2626
:1004B00006FA07F18843A2F10D0606EB860605FA57
:1004C00006F10843E062F0BD816841F008018160F7
:1004D000704721B1826842F4A002826003E0826822
:1004E00022F4A00282607047816841F004018160BB
:1004F0007047000030B502460B464FF6FF7008E02B
:1005000012F8014B4440E1B20012054C34F811409E
:1005100060401C00A3F10105ABB2F1D130BD000079
:10052000283A000810B5FE48008840F6E4414843E8
:100530000014FC490880FC48008840F6E441484328
:100540000014FA490880FA48008807286FD2DFE8CB
:1005500000F0046FB1DDFCFBFA00F648008840F0C3
:100560002000F44908804FF40061F34800F013FDC7
:100570004FF48061F04800F00EFDF0480088B0F5BF
:10058000FA7F08DDEA480088401CE949088000201D
:10059000EA4908804BE0E9480088642190FBF1F2C9
:1005A00001FB1200322821DA4FF40041E44800F048
:1005B000F0FC4FF48041E24800F0EBFC0421DE48FF
:1005C00000F0E7FC4FF48061DB4800F0E2FC08211A
:1005D000D94800F0DEFC4FF40041D74800F0DBFCC6
:1005E0004FF40061D44800F0D4FC20E04FF4004107
:1005F000D34800F0D0FC4FF48041D14800F0CBFC50
:100600000421CD4800F0C7FC4FF48061CA4800F0D7
:10061000C2FC0821C84800F0BEFC4FF40041C648A7
:1006200000F0B7FC4FF40061C34800F0B4FC0FE2E7
:10063000C048008820F02000BE490880BF480088DC
:10064000B0F5967F21DA4FF40051BD4800F0A3FCCD
:10065000B848007810F0010F02D00320B949088093
:10066000B64800880A2824DDB7484189AE4800888A
:1006700040F6E4425043B1EB204F1ADAAD4800880F
:1006800040F01000AB49088013E0AA48007810F051
:10069000100F0BD0A6480088401CA5490880A5482B
:1006A000008820F01000A349088002E00120A5493D
:1006B0000880CDE1A448C189A448008840F6E442FE
:1006C0005043B1EB204F1DDD9F48018AA0480088B0
:1006D0005043B1EB204F15DA9B48018990480088C0
:1006E0005043B1EB204F0DDD974841898E4800887B
:1006F0005043B1EB204F05DA8D480088401C8C49EF
:10070000088002E001208F490880A1E1914800782B
:10071000142866D08C4801898148008840F6E4425C
:100720005043B1EB204F04DA81480088401C8049D7
:10073000088082480088B0F57A7F17DD82480189F9
:100740007748008802E04DE1B9E086E040F6E442F7
:100750005043B1EB204F05DA75480088401C7449BE
:10076000088079E001207749088075E073480088A7
:10077000642190FBF1F201FB120062286CDD7548E8
:100780000078401C734908706F48418966480088AA
:1007900040F6E4425043B1EB204F0DDD6A48018939
:1007A0005F4800885043B1EB204F05DD6A48007870
:1007B000401C6949087002E00020674908706648DB
:1007C0000078052848DB604801895548008840F6D4
:1007D000E4425043B1EB204F3EDD14205D490870E8
:1007E0003AE05648008840F2DC5188420EDA51481F
:1007F000008840F020004F49088004214E4800F056
:10080000C8FB08214C4800F0C6FB25E04E48018992
:100810004348008840F6E4425043B1EB204F05DAEC
:1008200043480088401C424908800AE006204049AD
:1008300008804FF40051424800F0ABFB00203F49D4
:1008400008803C48008820F020003A4908800020B9
:100850004049087040490870FAE03848008840F282
:10086000DC51884225DA3848C1893848008840F68A
:10087000E4425043B1EB204F17DD3348018A34483E
:1008800000885043B1EB204F0FDA2F4801892448EC
:1008900000885043B1EB204F07DA2B4841892248AA
:1008A00000885043B1EB204F08DC01202549088027
:1008B00004E01F480088401C1D490880C8E0224809
:1008C000C1892248008840F6E4425043B1EB204FF2
:1008D00044DD1D48018A1E4800885043B1EB204F7B
:1008E0003CDA194801890E4800885043B1EB204F8B
:1008F00034DD154841890C4800885043B1EB204F46
:100900002CDD0B480088401C0949088000200B4959
:1009100008804FF400510A4800F03BFB61E0000002
:10092000AC00002012000020B000002014000020C5
:100930000200002010000020000C014006000020F2
:1009400000100140000000209E050020AA000020A9
:10095000AE000020A0000020A10000203F48008839
:1009600042F6F82188423CDD3D48C1893D48008877
:1009700040F6E4425043B1EB204F2FDD3848018A66
:10098000394800885043B1EB204F27DA34480189B9
:10099000364800885043B1EB204F1FDA3048418978
:1009A000334800885043B1EB204F17DD31480088B1
:1009B00040F020002F49088004212F4800F0EBFA76
:1009C0002E480088401C2D490880002023490880BB
:1009D0004FF400512A4800F0DCFA02E001202949D6
:1009E000088035E01E48018A1F48008840F6E4422E
:1009F0005043B1EB204F22DD1E48008820F020003C
:100A00001C49088002201F4908801548808F40F04B
:100A10002000134988871C480068012803D1C103BE
:100A20001A4800F0B8FA4FF40041134800F0B1FA48
:100A30001048008820F004000E49088007E00748AD
:100A40000088B0F52F7F02DD01200E49088000BF2D
:100A500000BF0A4800880E49088010BD060000202B
:100A60009E050020AA000020AE000020AC0000205F
:100A7000B000002010000020000C01400200002007
:100A80000010014000000020840000200008014008
:100A900004000020704770477047704770477047E8
:100AA000704770B503460024002010E00E5C451C22
:100AB0004D5D46EA0526851C4D5D46EA0546C51C8A
:100AC0004D5D46EA056543F82450641C001D9042C4
:100AD000ECD370BD704770477047704770477047E0
:100AE000704770B5034614460022002015E011F847
:100AF00022501D5431F82250C5F30726451C5E557F
:100B000051F82250C5F30746851C5E5551F8225016
:100B10002D0EC61C9D55521C001DA042E7D370BD72
:100B20000149C860704700000020024030B504460B
:100B300004254FF4302000F097F80546042D17D116
:100B40000C48006940F002000A4908610846446107
:100B5000006940F0400008614FF4302000F084F854
:100B600005460448006941F6FD71084001490861E5
:100B7000284630BD0020024004200B49C96811F00E
:100B8000010F01D001200EE00749C96811F0040FE0
:100B900001D0022007E00449C96811F0100F01D00C
:100BA000032000E00420704700200240704700004E
:100BB0000549096821F01001034A116011460968CE
:100BC00001431160704700000020024078B50646DE
:100BD0000C46042500200090E80200F045F8054688
:100BE000042D24D11348006940F001001149086127
:100BF0003480E80200F038F80546042D10D1B01C0E
:100C00000090200C00990880E80200F02DF80546BD
:100C10000848006941F6FE7108400649086106E08F
:100C20000448006941F6FE710840024908612846FF
:100C300078BD00000020024001460020034A1068F1
:100C400000F03800084310607047000000200240A8
:100C500002480349486003484860704723016745DC
:100C600000200240AB89EFCD00B502460423FFF718
:100C700083FF034603E0FFF77FFF0346521E012B6D
:100C800001D1002AF7D102B90523184600BD0000A2
:100C900070B52248A0F12002801A451005EBD570EE
:100CA0004010401C0422C2EB80011D480068FFF781
:100CB00021FC1B490968098C884215D0002405E0F5
:100CC00000201849096821F81400641C1349A1F197
:100CD0002002891A481000EBD071012202EB610159
:100CE000A142EDDC002070BD002408E00E48006841
:100CF00050F824000D49096841F82400641C074994
:100D0000A1F12002891A481000EBD071012202EBF8
:100D10006101A142EADC0120E5E70000BE050020F8
:100D200048000020400000205C0000205800002007
:100D300070B50420494908700120494908704948A4
:100D40000068007810F0080F05D046480068007869
:100D5000FF2800D070BD002500240BE04248006849
:100D600050F824003F49096851F82410884200D007
:100D70000125641C3D49A1F12002891A481000EBAD
:100D8000D071012202EB6101A142E7DC05B9E1E784
:100D9000FFF75EFF0120364908603520FFF7C0FEEF
:100DA0000020344908600EE032490968324A531481
:100DB00003FB0120FFF7BAFE284908702D480068A0
:100DC000401C2C4908602B48006829490968884262
:100DD00003D2224800780428E6D027482749086033
:100DE0002249A1F12002891A481000EBD071491064
:100DF0004C1C1E48801A461006EBD6704010401C52
:100E00000422C2EB800119482038FFF773FB174911
:100E100020390884002413E01348006850F82400A7
:100E20001049096851F82410884208D00E4A126807
:100E300052F82410104A02EB8400FFF7C7FE641C2E
:100E40000A49A1F12002891A481000EBD071012251
:100E500002EB6101A142DFDC00BF7BE7BC000020A8
:100E6000BD0000205C00002058000020BE050020CE
:100E7000540000204C000020003C000850000020DE
:100E80002DE9F04102460025002600200023002421
:100E9000002791F803C00CF00F0591F803C01CF077
:100EA000100F03D091F802C04CEA050591F800C07C
:100EB000BCF1000F31D0146800202BE04FF0010C82
:100EC0000CFA00F3B1F800C00CEA03069E4220D1F0
:100ED00083004FF00F0C0CFA03F7BC4305FA03FC38
:100EE0004CEA040491F803C0BCF1280F06D14FF07E
:100EF000010C0CFA00FCC2F814C00AE091F803C01F
:100F0000BCF1480F05D14FF0010C0CFA00FCC2F8FF
:100F100010C0401C0828D1D31460B1F800C0BCF147
:100F2000FF0F34DD546800202EE000F1080C4FF074
:100F3000010808FA0CF3B1F800C00CEA03069E425F
:100F400021D183004FF00F0C0CFA03F7BC4305FAD4
:100F500003FC4CEA040491F803C0BCF1280F05D14E
:100F600000F1080C08FA0CF8C2F8148091F803C0DC
:100F7000BCF1480F07D100F1080C4FF0010808FA46
:100F80000CF8C2F81080401C0828CED35460BDE88D
:100F9000F0814161704701617047000010B544481D
:100FA000008830B1012838D002285DD003287DD1D7
:100FB00002E0FFF7B7FA79E04FF400613D48FFF730
:100FC000E8FF3D480088002803DD3B4800880328EF
:100FD00007DB394800881E2808DD374800882128AB
:100FE00004DA80213348FFF7D6FF03E0802131483F
:100FF000FFF7CFFF3148008840F6B831884204DD62
:101000004FF480412B48FFF7C4FF2B480088642829
:1010100002DD00202849088048E02948007810F0C7
:10102000200F04D14FF400512648FFF7B2FF2648A5
:10103000008840F0080024490880244800882828B7
:1010400005DA4FF400411B48FFF7A5FF0BE01F48EE
:1010500000883C2802DB00201C4908804FF4004136
:101060001448FFF796FF21E01548808F40F02000DC
:101070001349888716480068012803D1C103154821
:10108000FFF789FF0E4890F83C0010F00F0F06D0D4
:101090000D48008840F008000B49088005E00A4828
:1010A000008820F008000849088000BF00BF10BD7C
:1010B00000000020000C0140080000200C0000206F
:1010C0009E050020001001401000002006000020B6
:1010D0008400002000080140704770472DE9FC4162
:1010E00006460C46082204F110016846FFF7F9FC99
:1010F000208AC0F3C505382D02D2C5F1380001E0C1
:10110000C5F1780007463A460949204600F012FC2E
:1011100008226946204600F00DFC10222146304688
:10112000FFF7DFFC58212046FFF793F8BDE8FC816C
:10113000C8000020002242610261054901600549A2
:1011400041600349C94381600249C943C160704796
:101150000123456789ABCDEF2DE9F04391B080467F
:101160008946D8F80040D8F80450D8F80860D8F874
:101170000C704022494601A8FFF793FC05EA0600DF
:1011800027EA0501084301990844FE49084404443C
:10119000E00140EA54642C4404EA050026EA040114
:1011A000084302990844F84908440744380340EAD0
:1011B0001757274407EA040025EA07010843039963
:1011C0000844F24908440644700440EAD6363E44D6
:1011D00006EA070024EA0601084304990844EC499A
:1011E00008440544A80540EA9525354405EA06006B
:1011F00027EA0501084305990844E64908440444E0
:10120000E00140EA54642C4404EA050026EA0401A3
:10121000084306990844E04908440744380340EA73
:101220001757274407EA040025EA070108430799EE
:101230000844DA4908440644700440EAD6363E447D
:1012400006EA070024EA0601084308990844D4493D
:1012500008440544A80540EA9525354405EA0600FA
:1012600027EA0501084309990844CE490844044483
:10127000E00140EA54642C4404EA050026EA040133
:1012800008430A990844C84908440744380340EA17
:101290001757274407EA040025EA070108430B997A
:1012A0000844A0F524404F380644700440EAD6367E
:1012B0003E4406EA070024EA060108430C99084464
:1012C000BA4908440544A80540EA9525354405EA8D
:1012D000060027EA050108430D990844B44908446B
:1012E0000444E00140EA54642C4404EA050026EA80
:1012F000040108430E990844AE49084407443803E2
:1013000040EA1757274407EA040025EA0701084383
:101310000F990844A84908440644700440EAD636A8
:101320003E4406EA070024EA0601084310990844EF
:10133000A24908440544A80540EA9525354405EA34
:10134000070026EA07010843029908449C4908441B
:101350000444600140EAD4642C4404EA060025EA0F
:10136000060108430799084496490844074478024F
:1013700040EAD757274407EA050024EA0501084355
:101380000C990844904908440644B00340EA964644
:101390003E4406EA040027EA040108430199084490
:1013A0008A4908440544280540EA1535354405EACC
:1013B000070026EA070108430699084484490844BF
:1013C0000444600140EAD4642C4404EA060025EA9F
:1013D000060108430B9908447E49084407447802F3
:1013E00040EAD757274407EA050024EA05010843E5
:1013F00010990844784908440644B00340EA9646E8
:101400003E4406EA040027EA04010843059908441B
:10141000724908440544280540EA1535354405EA73
:10142000070026EA070108430A9908446C49084462
:101430000444600140EAD4642C4404EA060025EA2E
:10144000060108430F990844664908440744780296
:1014500040EAD757274407EA050024EA0501084374
:1014600004990844604908440644B00340EA96469B
:101470003E4406EA040027EA0401084309990844A7
:101480005A4908440544280540EA1535354405EA1B
:10149000070026EA070108430E9908445449084406
:1014A0000444600140EAD4642C4404EA060025EABE
:1014B00006010843039908444E490844074478024A
:1014C00040EAD757274407EA050024EA0501084304
:1014D00008990844484908440644B00340EA96463F
:1014E0003E4406EA040027EA040108430D99084433
:1014F000424908440544280540EA1535354485EA43
:1015000006007840069908443D49084404442001F7
:1015100040EA14742C4484EA050070400999084498
:10152000384908440744F80240EA5757274487EAF5
:10153000040068400C9908443349084406443004C8
:1015400040EA16463E4486EA070060400F99084488
:101550002E4908440544E80540EA5525354485EA06
:1015600006007840029908442949084404442001AF
:1015700040EA14742C4484EA05007040059908443C
:10158000244949E078A46AD756B7C7E8DB7020241D
:10159000EECEBDC1AF0F7CF52AC68747134630A8F3
:1015A000019546FDD8988069AFF7448BBED75C891A
:1015B0002211906B937198FD8E4379A62108B4494E
:1015C00062251EF640B340C0515A5E26AAC7B6E94E
:1015D0005D102FD65314440281E6A1D8C8FBD3E78F
:1015E000E6CDE121D60737C3870DD5F4ED145A4572
:1015F00005E9E3A9F8A3EFFCD9026F678A4C2A8DAD
:101600004239FAFF81F6718722619D6D0C38E5FD44
:1016100044EABEA4A9CFDE4B08440744F80240EADE
:101620005757274487EA0400684008990844A749A7
:1016300008440644300440EA16463E4486EA070061
:1016400060400B990844A24908440544E80540EA73
:101650005525354485EA060078400E9908449D4991
:1016600008440444200140EA14742C4484EA050030
:10167000704001990844984908440744F80240EA38
:101680005757274487EA040068400499084493495F
:1016900008440644300440EA16463E4486EA070001
:1016A0006040079908448E4908440544E80540EA2B
:1016B0005525354485EA060078400A990844894949
:1016C00008440444200140EA14742C4484EA0500D0
:1016D00070400D990844844908440744F80240EAE0
:1016E0005757274487EA04006840109908447F4907
:1016F00008440644300440EA16463E4486EA0700A1
:101700006040039908447A4908440544E80540EAE2
:101710005525354465EA070070400199084475492C
:1017200008440444A00140EA94642C4464EA06009E
:10173000684008990844704908440744B80240EAE0
:101740009757274467EA050060400F9908446B49A2
:1017500008440644F00340EA56463E4466EA040064
:10176000784006990844664908440544680540EAFB
:10177000D525354465EA070070400D990844614954
:1017800008440444A00140EA94642C4464EA06003E
:101790006840049908445C4908440744B80240EA98
:1017A0009757274467EA050060400B99084457495A
:1017B00008440644F00340EA56463E4466EA040004
:1017C000784002990844524908440544680540EAB3
:1017D000D525354465EA07007040099908444D490C
:1017E00008440444A00140EA94642C4464EA0600DE
:1017F000684010990844484908440744B80240EA40
:101800009757274467EA0500604007990844434911
:1018100008440644F00340EA56463E4466EA0400A3
:1018200078400E9908443E4908440544680540EA5A
:10183000D525354465EA07007040059908443949C3
:1018400008440444A00140EA94642C4464EA06007D
:1018500068400C990844344908440744B80240EAF7
:101860009757274467EA05006040039908442F49C9
:1018700008440644F00340EA56463E4466EA040043
:1018800078400A9908442A4908440544680540EA12
:10189000D5253544D8F800002044C8F80000D8F811
:1018A00004002844C8F80400D8F808003044C8F8F8
:1018B0000800D8F80C003844C8F80C00402101A8F2
:1018C000FEF7C7FC11B0BDE8F0830000604BBBF62B
:1018D00070BCBFBEC67E9B28FA27A1EA8530EFD434
:1018E000051D880439D0D4D9E599DBE6F87CA21F20
:1018F0006556ACC4442229F497FF2A43A72394AB2E
:1019000039A093FCC3595B6592CC0C8F7DF4EFFF3B
:10191000D15D84854F7EA86FE0E62CFE144301A3C1
:10192000A111084E827E53F735F23ABDBBD2D72AB9
:1019300091D386EB2DE9F047044688461546208A68
:10194000C0F3C509206900EBC5002061B0EBC50FED
:1019500002D26069401C6061606900EB5571616191
:10196000C9F14007BD421BD304F1180101EB090086
:101970003A464146FEF728FC04F118012046FFF7DD
:10198000EBFB3E4605E008EB06012046FFF7E4FBD3
:10199000403606F13F00A842F5D34FF0000900E0C1
:1019A0000026AA1B08EB060104F1180303EB09004B
:1019B000FEF70AFCBDE8F08730B59BB000244FF07D
:1019C000006501A8FFF7B6FB0D4A294601A8FFF7FD
:1019D000B1FF01A917A8FFF781FB0CE0012000EB84
:1019E000440017A9085C11F8141040EA01210548C9
:1019F00020F81410641C082CF0DB1BB030BD000074
:101A0000FFFF0100F205002008B500214FF0006043
:101A100000F056F825208DF8000001208DF8010017
:101A20008DF802008DF80300684600F00FF81920C9
:101A30008DF8000001208DF801008DF802008DF86E
:101A40000300684600F002F808BD000070B50021F0
:101A500000230F22C4780CB3164C246804F4E0640D
:101A6000C4F5E064210AC1F10403CA40447804FAD1
:101A700003F184781440214309010F4C0678A155E5
:101A8000047804F01F050124AC4005786D114FF077
:101A9000E02606EB8505C5F8004109E0047804F06E
:101AA0001F050124AC40054D0678761145F8264007
:101AB00070BD00000CED00E000E400E080E100E01B
:101AC000024A0A400243024B1A60704780FFFF1F20
:101AD00008ED00E07047000001460020034A50680E
:101AE00020F440400843506070470000001002405E
:101AF00029B1064AD2690243044BDA6104E0034A81
:101B0000D2698243014BDA61704700000010024045
:101B100029B1064A92690243044B9A6104E0034AE0
:101B200092698243014B9A617047000000100240A5
:101B300010B500F02BF81020FFF73AF80220FFF75D
:101B40007BF8002000F0D8F8002000F0EFF84FF408
:101B5000806000F0DFF84FF48040FFF7BDFF4FF4E6
:101B60008011002000F0F4F8012000F0EBF800BF35
:101B7000392000F09BF80028FAD0022000F0F6F897
:101B800000BF00F0B1F80828FBD110BD0F48006875
:101B900040F001000D490860084640680C490840C3
:101BA0000A494860084600680A4908400749086031
:101BB0000846006820F4802008600846406820F449
:101BC000FE0048604FF41F0088607047001002401C
:101BD0000000FFF8FFFFF6FE30B5002100220024D0
:101BE00000232D4D6D6805F00C0121B1042905D0AD
:101BF000082923D105E0294D056022E0274D056025
:101C00001FE0254D6D6805F47012234D6D6805F4D5
:101C10008034022505EB92421CB9214D55430560E5
:101C20000BE01D4D6D6815F4003F03D01C4D55436E
:101C3000056002E0194D5543056002E0174D05604F
:101C400000BF00BF144D6D6805F0F0010909154D86
:101C50006B5C0568DD4045600F4D6D6805F4E06123
:101C6000090A104D6B5C4568DD4085600A4D6D6862
:101C700005F46051C90A0B4D6B5C4568DD40C560D9
:101C8000054D6D6805F44041890B074D6B5CC568D7
:101C9000B5FBF3F5056130BD0010024000127A007B
:101CA00000093D00080100201801002010B5014680
:101CB0000022002300204A11012A02D1094C236886
:101CC00006E0022A02D1074C236A01E0054C636A50
:101CD00001F01F02012494401C4201D0012000E0C9
:101CE000002010BD001002400248406800F00C00C7
:101CF000704700000010024001460020034A50686F
:101D000020F0F000084350607047000000100240CF
:101D10007047000001460020034A506820F4E0604C
:101D20000843506070470000001002400146002048
:101D3000034A506820F4605040EAC1005060704788
:101D4000001002400149086670470000000042424E
:101D500002460020044B586820F47C1042EA01033C
:101D60001843014B586070470010024001460020A4
:101D7000034A506820F00300084350607047000099
:101D80000010024070477047704710B500F002F82D
:101D900010BD00000CB50020019000903248006892
:101DA00040F480303049086000BF2F48006800F4DC
:101DB000003000900198401C0190009818B90198DB
:101DC000B0F5A06FF1D12848006810F4003F02D0B0
:101DD0000120009001E0002000900098012842D1ED
:101DE0002248006840F0100020490860084600685A
:101DF00020F0030008600846006840F00200086018
:101E000019484068184948600846406848600846D4
:101E1000406840F4806048600846406820F47C10C8
:101E200048600846406840F4E8104860084600688A
:101E300040F08070086000BF0B48006810F0007F21
:101E4000FAD00948406820F0030007494860084676
:101E5000406840F00200486000BF0348406800F05E
:101E60000C000828F9D10CBD0010024000200240EF
:101E700010B51348006840F0010011490860084699
:101E80004068104908400E494860084600680E49FD
:101E900008400B4908600846006820F4802008606C
:101EA0000846406820F4FE0048604FF41F00886038
:101EB000FFF76BFF4FF000600449086010BD0000A1
:101EC000001002400000FFF8FFFFF6FE08ED00E002
:101ED00070477047704770472DE9F047FE4800682B
:101EE0000B2801D1002002E0FB480068401CFA49A1
:101EF0000860FA48FEF755FA8246F74800680C2851
:101F00002ED2DFE800F0062E4F6D93B9CBF6F4F336
:101F1000F2F1F3480068C0EB0A40F149096801EBAF
:101F20002020EF490860096846F66052A2EB214084
:101F300001F025FC0646EB4AEB4B01F09BFA044608
:101F40000022EA4B01F0EEF9804601F0EBFBE84994
:101F5000A1F84600072301220321E048FEF758FAC2
:101F60006DE1AAF50040E3490968C1EB0040E14991
:101F7000096801EB2020DF490860096809145A222A
:101F800001FB02F0C11700EB5141C913C1F500413B
:101F9000D74AA2F84410072301220421CF48FEF7B4
:101FA00037FA4CE1D4480068C0EB0A40D2490968CE
:101FB00001EB2020D049086008460068001440F674
:101FC0001651484343F2F93190FBF1F0C849A1F8AA
:101FD0004200072301220621C048FEF719FA2EE12C
:101FE000C6480068C0EB0A40C149897C0841C34922
:101FF00009680844C1490860BAF1000F0CD0BC4818
:10200000007810F0040F03D008460068001400E0C8
:102010005046BB49088002E00020B94908800723E8
:1020200001220521AD48FEF7F3F908E1B548006843
:10203000C0EB0A40AE49897C0841B24909680844AE
:10204000B0490860BAF1000F0CD0A948007810F030
:10205000040F03D008460068001400E05046AA4967
:10206000088002E00020A8490880072301220021FF
:102070009A48FEF7CDF9E2E041F67950824506DA5A
:1020800041F2B950824502DD0320A04908600723D0
:10209000012219469148FEF7BBF9D0E09C48006840
:1020A000C0EB0A409249897C084199490968084473
:1020B00097490860BAF1000F0CD08D48007810F0F5
:1020C000040F03D008460068001400E05046914910
:1020D000088002E000208F49088007230122114672
:1020E0007E48FEF795F9AAE07DE071E032E026E057
:1020F000FFE789480068C0EB0A407D49897C0841B8
:1021000085490968084484490860BAF1000F0CD079
:102110007748007810F0040F03D0084600680014D8
:1021200000E050467D49088002E000207B4908809D
:102130000723012208216948FEF76AF97FE04FEA88
:102140002A10774908600723012202216348FEF71D
:102150005FF974E0CAF30F10724908807048006894
:10216000DB2805DD0846008840F2DA41884221DBA1
:102170006B480068A22805DD6A48008840F2734178
:10218000884217DB66480068762805DD65480088C8
:1021900040F20B4188420DDB61480068552804DDA0
:1021A00060480088B0F5697F04DB5E480088B0F5C0
:1021B0004F7F03DA03205C49088002E000205B497E
:1021C00008800723012209214448FEF721F936E05F
:1021D0004FEA2A10564908600723012203213F488D
:1021E000FEF716F92BE04FEA2A10524908605248D0
:1021F000006810F4805F15D149480068B0F54C7F45
:1022000010DB47480068B0F5686F0BDA4548008876
:10221000B0F5CF6F06DA4FF4006147480838FEF793
:10222000B8FE05E04FF4006143480838FEF7B3FEFE
:102230000723012210212948FEF7EAF800BF00BF5A
:1022400001212648FEF745F93C48006848B33B4861
:102250000068401E3949086034D1394800780128A7
:1022600020D101033748FEF796FE012240F2277184
:10227000354800F01AFC3448008810F0800F21D057
:10228000324800683249096888421BDA2F480168E1
:102290000068401C2D4A10602E48405C2A49091DE8
:1022A00008800FE04FF480512648FEF772FE4FF48D
:1022B00000512448FEF76DFE012240F225512248CC
:1022C00000F0F3FB244800682449884249DC224896
:1022D0000068801C204943E0600000200024014089
:1022E0007C00002029BFE7813E14214000406F4060
:1022F0009E0500207800002074000020640000206B
:10230000AA00002068000020AE0000208400002009
:102310006C000020AC00002070000020B000002005
:1023200090000020B2000020000000200C000020DF
:10233000880000208C000020080801401C000020BC
:1023400024000020000C014000380140180000204B
:10235000200000201C01002094000020F049020011
:1023600008602E48007810F0200F50D12C4890F8CB
:102370003C0010F0010F05D04FF480412948FEF7D2
:1023800008FE04E04FF480412648FEF704FE24488E
:1023900090F83C0010F0020F05D04FF400412148A6
:1023A000FEF7F7FD04E04FF400411E48FEF7F3FD91
:1023B0001B4890F83C0010F0040F04D004211A4888
:1023C000FEF7E7FD03E004211748FEF7E4FD14489B
:1023D00090F83C0010F0080F04D008211248FEF7D6
:1023E000D8FD03E008211048FEF7D5FD0C4890F811
:1023F0003C0010F0200F05D04FF480610A48FEF732
:10240000C8FD04E04FF480610748FEF7C4FD0121D8
:10241000064800F00FF8BDE8F0870000100000202B
:102420009E05002000100140000C0140002C0140DE
:1024300070477047CA430282704721B1028842F058
:102440000102028004E002884FF6FE731A40028007
:102450007047000070B5002400220023058C4FF661
:10246000FE7635400584028C8388048B4FF68F7589
:102470002C40B51E2C400D882C43751E2A400D891A
:102480002A434D882A43144DA8420BD0134DA8422D
:1024900008D0134DA84205D0124DA84202D0124DCB
:1024A000A84213D14FF6F7752A404D892A434FF6BB
:1024B000FB752A408D882A434FF6FF652B404FF667
:1024C000FF552B408D892B43CD892B43838004837B
:1024D000CD888586028470BD002C01400034014007
:1024E0000040014000440140004801400A460021EC
:1024F000018B4FF6F77319401143018370470000B9
:1025000070B5002400220023058C4FF6EF7635408D
:102510000584028C8388048B48F6FF752C404FF6A7
:10252000FF452C400D884FF6FF7606EA05252C4323
:102530004FF6DF752A400D8906EA05152A434D88B6
:1025400006EA05152A43154DA84202D0144DA842AB
:102550001DD14FF67F752A404D894FF6FF7606EA6A
:1025600005152A434FF6BF752A408D8806EA0515E2
:102570002A434FF6FF352B404FF2FF752B408D89D4
:1025800006EA85052B43CD8906EA85052B43838022
:102590000483CD880587028470BD0000002C0140B3
:1025A000003401400A460021018B4FF2FF731940AD
:1025B0004FF6FF7303EA02231943018370470000BB
:1025C000002202881D4B98420ED01D4B98420BD022
:1025D000B0F1804F08D01B4B984205D01A4B98425F
:1025E00002D01A4B984204D14FF68F731A404B8891
:1025F0001A43174B984207D0164B984204D04FF617
:10260000FF431A40CB881A4302808B8883850B884E
:1026100003850A4B98420BD0094B984208D00E4BC9
:10262000984205D00D4B984202D00D4B984201D1F3
:102630000B7A03860123838270470000002C01403F
:10264000003401400004004000080040000C00403D
:1026500000100040001400400040014000440140D0
:10266000004801402DE9F047FB48008800F0FF08D2
:1026700018F0800F01D04FF0020918F0080F02D0B7
:10268000F548001D048818F0200F01D04FF0040910
:10269000F1480C30008800F0FF08B9F1020F06D0B5
:1026A000B9F1040F31D0B9F10C0F70D12CE0EA4828
:1026B000008810F0800F10D0E8480068E8490968E9
:1026C00088420ADAE54801680068401CE34A106065
:1026D000E448405CE049091D0880E0480068E049A2
:1026E000096888420FD11420DF4908600020DF49C3
:1026F0000870DA490860DA490860002240F2277160
:10270000D54800F0D2F9C0E100BFD348001D0088D1
:10271000D7490870D148006810B101283CD10DE0BC
:10272000D3480078012804D1D1480078CD490870F9
:1027300003E04FF0FF30C949086086E1CC480078DB
:10274000C849487008464078042821D00846407897
:1027500003281DD0084640780F2819D00846407835
:10276000102815D008464078062811D00846407831
:1027700001280DD008464078022809D00846407844
:10278000052805D04FF0FF30B449086003E07BE135
:102790000820B349086058E1B5480178B148AF4A0C
:1027A00012688154AD48006806280CD1AD484078C5
:1027B000102803D0AB4840780F2804D1A94880796D
:1027C0000930A7490860A6480068801EA349096827
:1027D00088427DDA4FF0FF30A0490860A0480168C8
:1027E000A048FDF787FE18B100209D4908602CE144
:1027F0004FF400519F48FEF7CEFB002240F22551D6
:10280000954800F052F99748C0789649897800EBCE
:102810000125944840799349097900EB01269148B4
:10282000407805280AD004DC03283FD004287AD158
:102830007AE006281CD01028F9D1A7E041F66160A3
:10284000854202D88848006840B185208549487093
:102850000220887003208249086008E00620804931
:102860000860804840797F49097900EB0124CAE07B
:1028700042F2D060854202D87B48006840B1862091
:1028800078494870022088700320754908600CE080
:10289000062073490860734840797249097900EB52
:1028A00001207549096821F81500ACE0A81942F229
:1028B0001071884204D8A81902D06B48006850B142
:1028C000832068494870022088700320644900E032
:1028D000BAE0086026E07006000E6249887008467B
:1028E0008078C01C5E490860002419E0281902D1D4
:1028F00001206249086028195F49096831F8100011
:102900000012032101EB4401564A505428195A4938
:10291000096811F81000042101EB44015054641CB3
:10292000B442E3D96FE063E0A819402804D8A8199D
:1029300002D04D48006840B184204A4948700220C6
:1029400088700320464908601FE07006000E454964
:10295000887008468078C01C41490860002412E055
:102960002819474931F810000012032101EB4401F6
:102970003C4A50542819424911F81000042101EB37
:1029800044015054641CB442EAD93CE0A81942F214
:102990001071884204D8A81902D03348006840B1A9
:1029A0009020304948700220887003202C4908602C
:1029B0001DE02C4840792B49097900EB01260024C1
:1029C00010E0082000EB44002649085C072101EBD9
:1029D0004401244A515C00EB01202749096821F891
:1029E0001400641CB442ECD306201D4908600AE0C0
:1029F0001C48407880301B494870012088700320B3
:102A00001749086000BF00BF154801681548FDF769
:102A100071FD0746124802680068401C104B1860A0
:102A200010488754C7F30722184601680068401C05
:102A300018600C48425414200B49086001200B49CF
:102A4000087000200F49086000BF00BF03480068FD
:102A5000401C0249086018E00038014018000020BE
:102A6000200000201C0100201C0000202400002069
:102A7000BF000020000C0140400000203400002076
:102A80001C0500203000002000BF00BFBDE8F0871B
:102A9000704721B1828942F40052828104E0828928
:102AA0004DF6FF731A4082817047F0B5034600244B
:102AB000002600250020A1F510676A3F00D100BF65
:102AC0001846C1F3421401F01F06012707FA06F564
:102AD000012C01D10C3004E0022C01D1103000E0B7
:102AE00014301AB107682F43076002E00768AF434C
:102AF0000760F0BD2DE9F04786B005460E4600247C
:102B0000A24600BFA1460027B08900B100BF2F46F2
:102B10002C8A4CF6FF700440F08804432C82AC8968
:102B20004EF6F3100440B088318908437189084398
:102B30000443AC81AC8A4FF6FF400440B0890443A3
:102B4000AC8201A8FFF748F81F48874202D1DDF8A0
:102B500010A001E0DDF80CA0A88910F4004F08D007
:102B60000AEBCA0000EB0A1031684900B0FBF1F82B
:102B700007E00AEBCA0000EB0A1031688900B0FBDD
:102B8000F1F86420B8FBF0F004012009642101FB96
:102B90001089A88910F4004F08D0322000EBC9003A
:102BA000B0FBF1F000F00700044308E0322000EB36
:102BB00009106421B0FBF1F000F00F0004432C81F8
:102BC00006B0BDE8F087000000380140704770474C
:102BD000FEF7F2FE4FF40070B249A1F86400FEF770
:102BE000A7FF01214FF4C920FEF792FF0121032026
:102BF000FEF77EFF012140F21D20FEF789FFAA4863
:102C00004068AA490843A849486000F073F900BF2A
:102C1000A748FDF7BCFB0028FAD140F6B830A1491F
:102C200048804FF47A6088804FF40040C8808881E3
:102C3000FEF72EF800209B4988879E480068008890
:102C4000A1F848009B4800680068000CA1F84A0001
:102C5000994800680088A1F84C00FEF7D5FE20E1F5
:102C60009648008810B9FEF799F902E000209449CF
:102C700008808C48C088A0F50040C0015A2190FB14
:102C8000F1F0C0F180008F49088086488089A0F566
:102C90000040C001C82190FBF1F08030C0F5807089
:102CA000894908807F48C08BA0F50040C001C82139
:102CB00090FBF1F08030C0F58070C90688867F48AF
:102CC0000088002879D17748018A8048008840F63A
:102CD000E4425043B1EB204F10DA4FF480517C486E
:102CE000FEF759F94FF400617948FEF752F96D4843
:102CF000808F40F002006B4988870AE04FF48051D2
:102D00007348FEF746F96748808F20F00200654956
:102D100088876448C1896F48008840F6E442504380
:102D2000B1EB204F10DA4FF400616948FEF733F938
:102D30004FF480516648FEF72CF95A48808F40F0D6
:102D40000100584988870AE04FF400616048FEF7A7
:102D500020F95448808F20F001005249888751485B
:102D600041895D48008840F6E4425043B1EB204F72
:102D700006DA4C48808F40F008004A49888705E011
:102D80004848808F20F008004649888745480189D7
:102D90005248008840F6E4425043B1EB204F06DA37
:102DA0004048808F40F004003E49888705E03D4858
:102DB000808F20F004003B4988873A48007810F063
:102DC000100F08D0454800883649C8874248008817
:102DD000A1F8400007E03F4800883249C8873B48D7
:102DE0000088A1F840002F48007810F0200F0AD189
:102DF0003B48008868B93B480088002809DD39480D
:102E00000088062805DA4FF400513748FEF7C3F86A
:102E100004E04FF400513448FEF7BBF82148007835
:102E200010F0020F02D002202D4908801D480078C2
:102E300010F0010F0BD072B671B6FDF779FF62B6D4
:102E400061B61848008820F001001649088015482E
:102E50004088000240F6165190FBF1F0401C1949E1
:102E6000091D08800F488088B0F5FA7F19DB0D48EE
:102E70008088B0F5FA5F14DC0A49898849001B4A4A
:102E800092FBF1F0C11700EB9171C1F38F01184A69
:102E900011801146088800EBD0714910144A08329D
:102EA0001180DDE69E0500200000014000090002BF
:102EB00000240140380000203C00002016000020C3
:102EC000060000203404004034440140AE000020DD
:102ED00000080140AA000020B0000020AC00002043
:102EE000000000200200002000100140001C4E0ED7
:102EF0002C48014070B54FF48850F64908804820AE
:102F0000C87002208870F448FDF7BAFFF349B1F1A8
:102F1000807F00D31DE021F07F40401E4FF0E02273
:102F2000506150170F22002807DA13071D0EEC4BD3
:102F300000F00F04241F1D5503E013071C0EE94B7E
:102F40001C5400BF00204FF0E02290610720106168
:102F500000BF4FF4C050DF4908801020C870022025
:102F60008870DD48FDF78CFF7820DA490880002062
:102F7000C87002208870D848FDF782FF4FF40070B7
:102F8000D4490880032088701820C870D248FDF703
:102F900077FF4FF48060CF49088003208870482075
:102FA000C870CD48FDF76CFF4FF41E70C94908800A
:102FB0001820C87003208870CB48FDF761FF4FF4DC
:102FC0007040C44908801020C87003208870C6482B
:102FD000FDF756FF4FF40050BE4908801420C8701A
:102FE00002208870C148FDF74BFF4FF40040B949FB
:102FF00008801020C87002208870BC48FDF740FF90
:103000004CF68C40B34908801020C87002208870AC
:10301000B548FDF735FF4FF46040AE4908801020F9
:10302000C87002208870B148FDF72AFF0320A94923
:1030300008800020C87002208870AB48FDF720FF90
:103040000C20A44908800020C87002208870A24883
:10305000FDF716FF4FF400609E4908801020C870ED
:10306000022088709C48FDF70BFF4FF4805099496F
:1030700008804820C870022088709748FDF700FF3C
:103080004FF40040934908801820C87003208870CE
:103090009148FDF7F5FE4FF4807095498880002037
:1030A0000880C88048804FF08040FFF789FA602090
:1030B00090490880012048808020C8800020088135
:1030C0004FF08040FFF7C6F90821C806FFF70EFA57
:1030D0004FF40040884908804FF00D004FF08041C8
:1030E00008844FF001014FF08040FFF7A6F900205F
:1030F00082490860087148714FF4602088604FF47D
:103100000060C860012008747D48006840F4000039
:103110007B49086079497A480838FDF751F901215F
:1031200077480838FDF728F975480838FDF7CCF9D5
:1031300000BF73480838FDF738F90028F9D1704806
:103140000838FDF7D1F94BF68030694988800020B6
:103150000880C880488008726A48FFF731FA012069
:1031600068490C31088001216648FFF766F945F689
:10317000C0505F498880032008800020C8804880B4
:103180006148FFF71DFA60205A49088001204880F5
:103190000020C88008815C48FFF75CF908215A4884
:1031A000FFF7A4F94FF4004057494431088001214A
:1031B0005548FFF742F94FF480704D498880002050
:1031C0000880C88048805148FFF7FAF960204949D3
:1031D0000880012048808020C880002008814B485A
:1031E000FFF738F908214948FFF780F94FF400400C
:1031F0004649443108800D2044492031088001218E
:103200004248FFF71AF94FF480703949888000204E
:103210000880C88048803E48FFF7D2F960203549D1
:103220000880012048808020C8800020088138481C
:10323000FFF766F908213648FFF7B4F960202D49F9
:103240000880012048800A20C8800020088130487A
:10325000FFF700F908212E48FFF748F901212C4813
:10326000FFF7EBF84FF480511F48FDF792FE4FF443
:1032700000511D48FDF78DFE2648808F20F020006C
:103280002449888724480068012803D1C1031248D3
:10329000FDF77FFE4FF4E130204908600020888070
:1032A000C880088188810C2048811D48FFF722FCD6
:1032B000012240F227711A48FFF7F7FB012240F282
:1032C00025511748FFF7F1FB01211548FFF7E1FBF6
:1032D00070BD0000C00000200008014080A903006C
:1032E00018ED00E000E400E0000C01400010014097
:1032F0003C0600204606002044000040280600202E
:1033000008240140002C01400048014000440140D5
:10331000000400409E0500208400002018060020C4
:103320000038014010B591EA030F48BF83F0004315
:1033300000F19882841A71EB030C05D2121943EB49
:103340000C03001B61EB0C01DFF824E14FEA115480
:10335000A4EB135C1EEA430F18BF9EEA445F73D0D0
:1033600023EA0E03DCF1200E21EA045143F480131A
:1033700032D322FA0CFE10EB0E0023FA0CFE41EBC6
:103380000E01CCF1200E03FA0EFE10EB0E0051F1EF
:103390000001B1F5801FCCF1200E32D201EB0451B7
:1033A00012FA0EF2BDE8104058BF7047401C38BFFB
:1033B0005FEA420218BF7047002814BF20F00100E6
:1033C00041F100014FEA410313F5001F38BF704778
:1033D000A1F1C04100F038BA012A43EB0302ACF17D
:1033E000200CDCF11F0E32BF4FF0000E23FA0CF35D
:1033F00010EB030041EB0451B4EB115FD0D0A1EB13
:10340000045101F5801149085FEA300001EB0451D5
:103410000ED350F1000038BF12FA0EFE08D1BDE8FD
:103420001040C9E7401C38BF5FEA4202CAD1C3E777
:10343000BDE810404FEA410313F5001F38BF704745
:10344000A1F1C04100F000BA9EEA445F08D011EA41
:103450005E0FBDE8104004BF01F00041002070473E
:10346000BDE8104070B500F0A1F900BF64FBBE3E9E
:103470000000E0FF2DE9C04130B4DFF8A0C23CEA13
:10348000111418BF3CEA131400F0EC8081EA030524
:103490001CEA111444EAD57418BF1CEA131500F095
:1034A000C780A4EB05044FF0004545EAC12145EA79
:1034B000C32341EA505143EA525304F17F749942C5
:1034C00004F500344FEAC0204FEAC22208BF904200
:1034D00000F09C804FEA13650FF24016765D4FEACC
:1034E000134506FB05F7C7F1807706FB07F74FEAA0
:1034F000D737A7FB03687642C8F58038A7FB06CE0E
:1035000038BFA8F1010807FB08E64FF0000EA6FB44
:10351000028CE6FB03CEDCF1000CCEF1004E38BF8E
:10352000AEF1010EA6FB0C584FF000074FF000055E
:10353000E6FB0E87A1FB08C6A0FB07CE16EB0E0626
:1035400045F10005E1FB076515F1E04E7EBFA4F5EE
:1035500080345FEA46066D4116F1800745F10005AB
:103560004FEA17274FEA066647EA0567A6F1DE46E7
:10357000B6F1805F4FEA15251FD9384624F0010CBB
:1035800005EBC471BCF1FE6F01EB0C1102D8F0BC6D
:10359000BDE8008124425CBF01F5801E9EEAC47F25
:1035A00002D4F0BCBDE80081244238D4F0BCA1F1C3
:1035B000C041BDE8004100F047B94FEAD22242EADB
:1035C00043524FEAD323A7FB02864FEAD02040EABA
:1035D000415007FB03661EEA0E0F4FEAD12105FB9F
:1035E000026658BFA6EB0056B6EB00564FEA520EE5
:1035F0004EEAC37E18EB0E0E56EB530EBDD518EBFC
:1036000002085E417F1C55F10005B6E74FF48015B6
:103610004FF000074FF000064FF00008ADE7F0BC98
:103620004FF0000001F1C04101F00041BDE8008110
:1036300011EA0C1F0CEA131500D00CE013EA0C1F62
:1036400000F025804FF00000F0BC81EA030101F09A
:103650000041BDE80081F0BCBDE8004181EA030102
:1036600000F0F2B8F0BCBDE8004170B500F09EF883
:10367000097EFC3E00F007B881EA03014FF000002C
:1036800001F00041704781EA030100F0DDB8F0BCB1
:10369000BDE800414FF0000021497047FFFDFBF9F4
:1036A000F7F5F4F2F0EEEDEBE9E8E6E4E3E1E0DE75
:1036B000DDDBDAD8D7D5D4D3D1D0CFCDCCCBCAC8E7
:1036C000C7C6C5C4C2C1C0BFBEBDBCBBBAB9B8B70E
:1036D000B6B5B4B3B2B1B0AFAEADACABAAA9A8A801
:1036E000A7A6A5A4A3A3A2A1A09F9F9E9D9C9C9BCF
:1036F0009A9999989797969595949393929191907A
:103700008F8F8E8E8D8C8C8B8B8A8989888887870A
:103710008685858484838382828181800000FF077F
:103720000000F87F4FEA1153A3F58063D3F11E0325
:10373000A8BFD3F1200C08DB4FF0004242EAC122BF
:1037400052EA505232FA03F0704709420BD4102B60
:10375000C4BF0020704703F5787CBCF1FF3F05D063
:103760004FF0FF3070474FF00000704770B500F029
:103770001DF800BF4992248000207047F0E710F048
:10378000004248BF4042B0FA80F310FA03F10AD079
:10379000C3F11D0303F580634FEA415002EB03526E
:1037A00002EBD12170474FF0000070470EF1020E7E
:1037B0002EF0030E5EF8046B364205D4012A43EB6B
:1037C000030515F5001F12D8012841EB010C1CF56B
:1037D000001F0CD80ED14FEAD17C15F5001F0CEB61
:1037E0004C0C0CF1020C08BF4CEBD37C04E04FF006
:1037F000080C01E04FEAD37C0CEB4C0526FA05F6E9
:1038000006F00706B6F1040C06D20EEB860CBDE8F6
:1038100070404CF0010C6047DFE80CF0090B02022D
:103820004FF000414FF00000A1F5002170BD194696
:103830001046012851EB010418BFD4F5001484BFD1
:10384000002001F0004170BD0808A0F500114FEA0A
:103850003101704710B591EA030F48BF83F0004370
:103860003FF568AD841A71EB030C07D212198CF086
:10387000004C43EB0C03001B61EB0C01DFF8A4E1EF
:103880004FEA1154A4EB135C1EEA430F18BF9EEAE3
:10389000445F00F0B08023EA6E03524221EA0451F3
:1038A000C3EB6E0338BF5B1EDCF1200E25D322FA7A
:1038B0000CFE10EB0E0043FA0CFE41EB0E01CCF1B6
:1038C000200E03FA0EFE10EB0E0051F10001CCF1B8
:1038D000200E29D412FA0EF201EB0451BDE810407B
:1038E00058BF7047401C1CBFB2F1004F7047002802
:1038F0000CBF491C20F00100704712EB020E43EB95
:10390000030218BF4FF0010E4EEA4202ACF1200C48
:10391000DCF11E0E54D943FA0CFE10EB0E0051F1EF
:10392000FF31CCF11E0ED5D50EF1010E12FA0EFEAE
:10393000404141EB010101EB445C5FEA5C5C10D962
:1039400010EBDE7001EB045138BFBEF1004FBDE853
:10395000104018BF704700280CBF491C20F0010020
:10396000704730D24FEAD42C11F5001124F40064D2
:103970001BD0B1FA81F20B3AA41AA41ED2F1200393
:10398000914030FA03F31943904001EBCC71002CC5
:1039900001EB0451BDE81040A8BF704701F1C041E0
:1039A0004FF0000001F000417047B0FA80F310FAC8
:1039B00003F100D110BDE41A173C4805C90AE4E739
:1039C00001EB045110BD491001EB0451BDE810405A
:1039D0004FEA300002E04FF0000170474A0008BF94
:1039E0000042F8D0B2F5001F28BF704701F0004137
:1039F0004FF0000070479EEA445F07D011EA5E0F67
:103A0000BDE8104004BF002100207047BDE8104011
:103A100070B5FFF7CBFE00BF40DFF63E83F00041FC
:103A2000104670470000E0FF0000C1C081C14001A6
:103A300001C3C003800241C201C6C006800741C75E
:103A40000005C1C581C4400401CCC00C800D41CD2E
:103A5000000FC1CF81CE400E000AC1CA81CB400BFE
:103A600001C9C009800841C801D8C018801941D9CE
:103A7000001BC1DB81DA401A001EC1DE81DF401F5E
:103A800001DDC01D801C41DC0014C1D481D540156E
:103A900001D7C017801641D601D2C012801341D37E
:103AA0000011C1D181D0401001F0C030803141F10E
:103AB0000033C1F381F240320036C1F681F740375E
:103AC00001F5C035803441F4003CC1FC81FD403D2E
:103AD00001FFC03F803E41FE01FAC03A803B41FBFE
:103AE0000039C1F981F840380028C1E881E940294E
:103AF00001EBC02B802A41EA01EEC02E802F41EF5E
:103B0000002DC1ED81EC402C01E4C024802541E56D
:103B10000027C1E781E640260022C1E281E340237D
:103B200001E1C021802041E001A0C060806141A18D
:103B30000063C1A381A240620066C1A681A740675D
:103B400001A5C065806441A4006CC1AC81AD406D2D
:103B500001AFC06F806E41AE01AAC06A806B41ABFD
:103B60000069C1A981A840680078C1B881B94079CD
:103B700001BBC07B807A41BA01BEC07E807F41BF5D
:103B8000007DC1BD81BC407C01B4C074807541B56D
:103B90000077C1B781B640760072C1B281B340737D
:103BA00001B1C071807041B00050C190819140510D
:103BB0000193C053805241920196C056805741975D
:103BC0000055C19581944054019CC05C805D419D2D
:103BD000005FC19F819E405E005AC19A819B405BFD
:103BE0000199C059805841980188C048804941894D
:103BF000004BC18B818A404A004EC18E818F404F5D
:103C0000018DC04D804C418C0044C184818540456C
:103C10000187C047804641860182C042804341837C
:103C20000041C18181804040483C000800000020E4
:103C30001C01000028010008643D00081C01002050
:103C40009C0B000044010008000000000000000080
:103C50000000000000000000000000000000010063
:103C60000000000000000000000000000001000053
:103C70000000000001000000000000000000000043
:103C8000E8F7FF1FECF7FF1F9E050020003C00082F
:103C9000003C0008000000000000000000000000E0
:103CA0009E050020003C000800000000000000000D
:103CB0000000000000000000000000000000000004
:103CC00000000000000000000000000000000000F4
:103CD00000000000000000000000000000000000E4
:103CE00000807701FA007D00000000000000000065
:103CF00000000000000000000000000000000000C4
:103D000000000000000000000000000000000000B3
:103D10008000000000000000000000000000000023
:103D20000000000000000000000000000000000093
:103D30000000000000000000000000000000000083
:103D40000000000000000000000000000000000073
:103D50000000000001020304010203040607080931
:043D6000020406084B
:04000005080000ED02
:00000001FF
