:020000040000FA
:100000002803001069010000710100007301000065
:100010007501000077010000790100000000000078
:100020000000000000000000000000007B01000054
:100030007D010000000000007F010000BD05000000
:100040008301000083010000D3050000830100004C
:100050008301000083010000C90500008301000046
:100060008301000083010000830100008301000080
:100070008301000083010000830100008301000070
:100080008301000083010000830100008301000060
:100090008301000083010000830100008301000050
:1000A0008301000083010000830100008301000040
:1000B0008301000083010000830100008301000030
:1000C00083010000830100008301000000F002F8BA
:1000D00000F03AF80AA090E8000C82448344AAF1A8
:1000E0000107DA4501D100F02FF8AFF2090EBAE8A6
:1000F0000F0013F0010F18BFFB1A43F0010318475C
:100100006826000088260000103A24BF78C878C10D
:10011000FAD8520724BF30C830C144BF04680C600D
:10012000704700000023002400250026103A28BF55
:1001300078C1FBD8520728BF30C148BF0B60704759
:100140001FB51FBD10B510BD02F0ECF81146FFF74A
:10015000F7FF00F0D3F902F00AF903B4FFF7F2FF5A
:1001600003BC02F00FF90000094880470948004726
:10017000FEE7FEE7FEE7FEE7FEE7FEE7FEE7FEE757
:10018000FEE7FEE704480549034A054B70470000B7
:1001900071070000CD0000002801001028030010A6
:1001A0002801001010B50A46202801D2034601E0BC
:1001B000A0F120031946202814D2464B1B684FF0AB
:1001C000030404FA01F423EA0403434CC4F8A831FD
:1001D000404B1B6802FA01F443EA04033E4CC4F8A6
:1001E000A83113E03D4B1B684FF0030404FA01F4FF
:1001F00023EA0403384CC4F8AC31384B1B6802FACC
:1002000001F443EA0403344CC4F8AC3110BD014698
:10021000202903D20A462F4B186803E0A1F12002DF
:100220002E4B186820FA02F303F00300704770B5F4
:1002300006462B4804683046FFF7E9FF054635B10E
:10024000012D06D0022D06D0032D08D105E004258E
:1002500005E0012503E0022501E0082500BF00BFFD
:10026000B4FBF5F4204670BD01290AD11D4A12687D
:100270001D4B00EA030342EA0302174BC3F8C420F4
:100280000AE049B9174A1268174B23EA000302EA49
:100290000302114BC3F8C4207047002013490860C3
:1002A00030BF704704201249086008200F490860D9
:1002B00030BF704704200E49086009200B490860D0
:1002C00030BF704704200A490860032007490860CE
:1002D00030BF7047A8C10F4000C00F40ACC10F40F5
:1002E0001C000010C4C00F40DEF7EFEFC0C00F408D
:1002F00010ED00E000BFFEE770470000FFFFFFFFCA
:1003000070B5BE4800F086FE0446022C00D11025D0
:10031000042C00D10125284670BD10B5B84801F065
:1003200095FB0021B64801F070FB10BD10B5B44834
:1003300001F08CFB0121B24801F067FB10BD58B100
:10034000B049896941F40031AE4A91611146896929
:1003500041F4802191610AE0AA49C96941F4003160
:10036000A84AD1611146C96941F48021D161704721
:1003700058B1A449C96941F48021A24AD16111460A
:10038000C96941F40031D1610AE09E49896941F4AB
:1003900080219C4A91611146896941F40031916143
:1003A000704710B5954800F0D0FC10BD00BF9348D1
:1003B000007D10F0200FFAD0704710B50446FFF70B
:1003C000F5FF21468D4800F0A3FC10BD1CB5044686
:1003D000009403208DF8050000208DF804008DF8AE
:1003E00006006946854800F0FFFA0121834800F0C5
:1003F000ECFB01221146814800F06DFD0122002135
:100400007E4800F068FD1CBD10B504462046FFF78D
:10041000DDFF10BD00207C49087048704880012035
:1004200008720520C860794808610A2048610020E8
:1004300088617748C8610A200862002048628862A3
:10044000C86208637348007881F83400AFF247004F
:100450008863AFF29900C863AFF2B9000864AFF2E5
:10046000EF008864AFF229104864AFF23F10C8640F
:10047000AFF259100865AFF2771048650846806FF3
:1004800020F0010088670846806F20F0020088672E
:100490000846806F20F0040088670846806F20F0CF
:1004A000080088670846806F20F0100088670846BB
:1004B000806F20F0200088670846806F20F04000A1
:1004C00088670846806F20F0800088670846806F44
:1004D00020F48070886770474A48006840F4C02064
:1004E000484908604C48006840F080404A4908602C
:1004F0000846406840F001004860704708B5012098
:1005000046490870434800784860012044494870D3
:10051000424A00213A4801F0B8F94149384801F00F
:10052000B2FAFFF7D9FFFFF775FF374801F0E0FC9B
:1005300062B6062000F056F8022000F053F8394861
:1005400000684FF4E132B0FBF2F00522B0FBF2F1AB
:10055000B1F1807F00D31DE021F07F40401E4FF0BD
:10056000E022506150171F22002807DAD3061D0E23
:100570002D4B00F00F04241F1D5503E0D3061C0E65
:100580002A4B1C5400BF00204FF0E022906107204E
:10059000106100BF11E026480068264988420CD34C
:1005A000002023490860DD201E230622012100903F
:1005B000154801F045FC044600BFECE71C48006804
:1005C000401C1B490860704710B50F4801F082FDC0
:1005D00010BD10B501210A4801F0F7F80A4801F0F2
:1005E000ECFD10BD00F01F020121914042094FF0C7
:1005F000E02303EB8202C2F80011704700000140C3
:100600000080004000C009202C000010A80000104D
:10061000B20000100500001000C0024014000010DD
:10062000BC0000101C00001018ED00E000E400E029
:100630001000001040420F007E480068C0F30160C7
:10064000032864D17C48006810F0030006D001281C
:1006500023D002283FD0032858D100E000BF7548BE
:100660000068C0F30E0000F101004FEA400073493A
:1006700000FB01F07249D1F88810C1F3074101F184
:100680000101B0FBF1F16F480068C0B200F1010058
:10069000B1FBF0F06C49086038E066480068C0F3D0
:1006A0000E0000F101004FEA4000684900FB01F034
:1006B0006349D1F88810C1F3074101F10101B0FB92
:1006C000F1F160480068C0B200F10100B1FBF0F048
:1006D0005D4908601AE057480068C0F30E0000F159
:1006E00001004FEA00415648D0F88800C0F30740A7
:1006F00000F10100B1FBF0F152480068C0B200F116
:100700000100B1FBF0F05049086000BF2FE04A48FB
:10071000006810F0030006D0012810D0022819D07C
:10072000032823D100E000BF46480068C0B200F1B2
:1007300001004249B1FBF0F04349086016E041482E
:100740000068C0B200F101004049B1FBF0F03E4941
:1007500008600BE03B480068C0B200F101004FF4B4
:100760000041B1FBF0F03849086000BF00BF70479E
:100770000020374908603248D0F8A00110F0200F5F
:1007800005D000BF3248006810F0400FFAD00320B7
:100790002C4908604FF488502949C1F8A8012D4818
:1007A0002D4908604FF00000234908602B482C4970
:1007B00008604FF0AA002B4908604FF05500086010
:1007C0004FF00100284908604FF0AA002549086051
:1007D0004FF055001A49C1F88C0000BF1548006859
:1007E00010F0806FFAD003201F4908604FF0AA0074
:1007F0001349C1F88C004FF055001A49086000BF3A
:100800000C48006810F0407FFAD0072017490860B4
:1008100017480B49C1F8C4004FF0000015490860A3
:1008200044F23A00064908604FF00000124908609F
:100830007047000088C00F400CC10F4000093D0008
:1008400000C00F4004C10F401C000010001BB70087
:10085000A0C10F4000040500ACC10F4063000100BF
:1008600084C00F408CC00F4080C00F4008C10F40B3
:1008700042862927C8C10F4008ED00E02DE9F04F5E
:1008800087B004460D4600200690059083460490EC
:100890000027012003900020029081468246FE48F6
:1008A0000190FE48844204D10620FFF7C0FC059069
:1008B00016E0FB48844204D10820FFF7B8FC0590FD
:1008C0000EE0F848844204D13020FFF7B0FC0590D8
:1008D00006E0F548844203D13220FFF7A8FC0590DA
:1008E00005980009059001263CE04FF0000830E033
:1008F0000598704306EB0801B0FBF1F004900498F2
:10090000B0FBF5F70498B0FBF5F105FB1100B0EB77
:10091000550F00D97F1C022F19D9B7F5803F16D289
:100920000498B0FBF7FBAB4502D8A5EB0B0A01E03E
:10093000ABEB050A0198824509D20396CDF80880F1
:10094000B946CDF804A0BAF1000F00D104E008F1D7
:100950000108B8F10F0FCBD900BFBAF1000F00D1D9
:1009600002E0761C0F2EC0D900BF05EB45006421C4
:10097000B0FBF1F10198814232D9C948844216D1C5
:10098000207B40F0800020734FEA1920207184F80A
:100990000090207B00F07F002073F021039801EA93
:1009A0000010029901F00F010843A06216E0207BBD
:1009B00040F0800020734FEA1920207184F80090E5
:1009C000207B00F07F002073F021039801EA0010E3
:1009D000029901F00F01084384F8280001200690D5
:1009E000069807B0BDE8F08F70B504460D46AB48D9
:1009F000844208D0AA48844205D0AA48844202D042
:100A0000A948844200D103E0BF21A8A0FFF772FCEF
:100A1000687940B16879012805D06879022802D048
:100A20006879032800D103E0C021A0A0FFF762FC91
:100A3000A87910B1A879012800D103E0C1219BA0B9
:100A4000FFF758FC287958B12879012808D028796F
:100A5000022805D02879032802D02879042800D15B
:100A600003E0C22191A0FFF745FC8C48844203D1EA
:100A700001210820FFF7F8FB8948844203D10121B6
:100A80001020FFF7F1FB8748844203D101210806BB
:100A9000FFF7EAFB8448844203D101214806FFF7AF
:100AA000E3FB7F48844221D107202072002020727E
:100AB00000E02678207D10F0010FFAD1802084F824
:100AC000300000BF207D10F0200FFBD0002084F804
:100AD0003000606020732062207484F84C0084F839
:100AE000540084F85000267E267D18E007202072EE
:100AF0000020207200E02678207D10F0010FFAD14E
:100B0000802084F8300000BF207D10F0200FFBD043
:100B1000002084F83000606020732062267D6248E7
:100B2000844202D1002084F8240020462968FFF77F
:100B3000A5FE5B48844203D1207B00F0C00602E0A2
:100B4000207B00F0C006687930B1012806D0022869
:100B500007D0032808D108E000BF09E046F00106ED
:100B600006E046F0020603E000BF46F0030600BFC1
:100B700000BF2879C0B146F008062879012806D0C0
:100B8000022806D0032807D004280BD107E000BFB5
:100B900009E046F0100606E046F0200603E046F0C5
:100BA000300600E000BF00BFA87928B1012802D1BB
:100BB00046F0040601E000BF00BF00BF3848844291
:100BC00001D1267300E0267370BD70B504460D4652
:100BD0003248844208D03248844205D031488442A9
:100BE00002D03148844200D104E040F2DF312FA02E
:100BF000FFF780FB0DB1012D00D104E04FF47871B7
:100C00002AA0FFF777FB012D10D12548844206D199
:100C100094F8300040F0800084F8300014E094F83C
:100C2000300040F0800084F830000DE01C48844221
:100C300005D194F83000002084F8300004E094F8E6
:100C40003000002084F8300070BD10B50446134811
:100C5000844208D01248844205D01248844202D00F
:100C60001148844200D104E040F28B110FA0FFF73D
:100C700041FB00212046FFF7A8FF0848844203D12A
:100C800000210820FFF7F0FA0548844203D1002133
:100C90001020FFF7E9FA21E0A086010000C0004023
:100CA000000001400080094000C009402E2E5C7306
:100CB00069705F6B65696C5C6C7063313778785F05
:100CC0006C69625C736F757263655C6C70633137FD
:100CD00078785F756172742E63000000FC4884426E
:100CE00004D100214FF08070FFF7BEFAF94884422A
:100CF00004D100214FF00070FFF7B6FA10BD4FF499
:100D00001651016003214171002101718171704709
:100D100070B504460D46F048844208D0EF4884423E
:100D200005D0EB48844202D0EA48844200D105E075
:100D300040F2CF11AFF28C00FFF7DCFAE7488442B3
:100D400001D1257000E0257070BD10B50446E24861
:100D5000844208D0E148844205D0DD48844202D074
:100D6000DC48844200D105E040F2E711AFF2C40054
:100D7000FFF7C0FAD948844201D1207810BD20780D
:100D8000FCE72DE9FF5F80468A46934657465C465E
:100D90000398012824D100251FE04FF0FF3905E01A
:100DA000B9F1000F00D106E0A9F1010998F814008B
:100DB00010F0200FF4D000BFB9F1000F00D10EE009
:100DC000102607E017F8011B4046FFF7A1FF761E2B
:100DD000641E6D1C0EB1002CF4D1002CDDD117E087
:100DE000002512E098F8140010F0200F00D10EE05A
:100DF000102607E017F8011B4046FFF789FF641E25
:100E0000761E6D1C0EB1002CF4D1002CEAD100BF6F
:100E1000284604B0BDE8F09F2DE9F05F07468946FB
:100E200092469B464E465546BBF1010F1DD100240C
:100E300018E04FF0FF3805E0B8F1000F00D105E0F1
:100E4000A8F10108387D10F0010FF5D000BFB8F10E
:100E5000000F00D108E03846FFF777FF06F8010BD6
:100E60006D1E641C002DE4D110E000240BE0387DE1
:100E700010F0010F00D108E03846FFF766FF06F8D2
:100E8000010B641C6D1E002DF1D100BF2046BDE892
:100E9000F09F10B504469048844208D08F488442A1
:100EA00005D08B48844202D08A48844200D105E0B4
:100EB00040F27921AFF20C20FFF71CFA87488442F8
:100EC00004D1207B40F04000207303E0207B40F001
:100ED0004000207310BD2DE9F04104460D46164632
:100EE00000277D48844208D07C48844205D0784859
:100EF000844202D07748844200D105E04FF4287143
:100F0000AFF25820FFF7F6F90EB1012E00D105E03F
:100F100040F2A121AFF26C20FFF7ECF9072D15D2BA
:100F2000DFE805F00406080A0C0E110001270DE0A9
:100F300002270BE0042709E0082707E0802705E0E7
:100F40004FF4807702E04FF4007700BF00BF6348A2
:100F5000844214D15DB1012D09D0022D07D0052D99
:100F600005D0062D03D0032D01D0042D00D116E0AD
:100F700040F2BD21AFF2CC20FFF7BCF90FE03DB14C
:100F8000012D05D0022D03D0052D01D0062D00D155
:100F900005E040F2C121AFF2EC20FFF7ABF9012EE2
:100FA0000AD14E48844203D160683843606013E040
:100FB0006068384360600FE04848844206D160684A
:100FC00040F28F31B9430840606005E0606840F24C
:100FD0000731B94308406060BDE8F08110B50446B0
:100FE0003D48844208D03D48844205D03848844278
:100FF00002D03848844200D105E040F2EF21AFF240
:101000005430FFF777F93548844201D1007D10BD97
:10101000207DFCE710B504462F48844208D02F48B5
:10102000844205D02A48844202D02A48844200D112
:1010300005E040F20631AFF28C30FFF75BF9A068B3
:1010400040F2CF31084010BD0146087D10F0400F3E
:1010500001D0002070470120FCE770B506460C4621
:1010600000251D48864208D01C48864205D01848F5
:10107000864202D01748864200D105E04FF44B71FA
:10108000AFF2D830FFF736F9E07840B1E0780128C8
:1010900005D0E078022802D0E078032800D105E0EE
:1010A00040F22D31AFF2FC30FFF724F9A07810B1F7
:1010B000A078012800D105E040F22E31AFF21440B3
:1010C000FFF718F9207810B12078012808D10DE039
:1010D0000080094000C0094000C0004000000140FD
:1010E00040F22F31AFF23C40FFF704F9607810B1C5
:1010F0006078012800D105E04FF44C71AFF2544004
:10110000FFF7F8F845F00105E07830B1012806D086
:10111000022807D0032808D108E000BF09E045F005
:10112000400506E045F0800503E000BF45F0C0053E
:1011300000BF00BF6078012801D145F00405207888
:10114000012801D145F00205A078012801D145F020
:101150000805FB48864203D105F0CF00307202E05B
:1011600005F0CF00307270BD00218170C170012187
:101170000170417070472DE9F04104460F46154655
:10118000F048844208D0EE48844205D0EE488442BC
:1011900002D0EE48844200D105E040F28731AFF240
:1011A000F440FFF7A7F80DB1012D00D105E04FF491
:1011B0006271AFF20850FFF79DF80026012D09D1AA
:1011C0003878012801D146F002067878012801D14B
:1011D00046F00406DA48844215D1012D10D1207B57
:1011E00040F080002073002020702071207B20F0D0
:1011F000800020731020A06246F00100206218E0F9
:101200000020206215E0012D11D1207B40F08000EC
:101210002073002020702071207B20F0800020733C
:10122000102084F8280046F00100206201E0002030
:101230002062BDE8F08170B504460D46C148844285
:1012400008D0BF48844205D0BF48844202D0BF487E
:10125000844200D105E04FF47271AFF2B050FFF755
:1012600049F8B748844203D1206A2843206202E04B
:10127000206A2843206270BD70B504460D46B3480D
:10128000844200D105E040F20941AFF2E050FFF79F
:1012900031F80DB1012D00D105E040F20A41AFF265
:1012A000F450FFF727F8012D06D194F8240040F000
:1012B000020084F8240006E02DB994F8240000F020
:1012C0003D0084F8240070BD70B504460D469F486B
:1012D000844200D105E040F22141AFF23060FFF7D7
:1012E00009F80DB1012D00D105E040F22241AFF225
:1012F0004460FEF7FFFF012D06D194F8240040F072
:10130000010084F8240005E094F8240000F03E0079
:1013100084F8240070BD2DE9F04105460C468B4849
:10132000854200D105E040F24241AFF28060FEF715
:10133000E1FF6CB1012C0BD0022C09D0032C07D09B
:10134000042C05D0052C03D0062C01D0072C00D18D
:1013500005E040F24341AFF2AC60FEF7CBFF60071F
:10136000870E95F8240020F0380647F00400064365
:1013700006F03F0085F82400BDE8F0812DE9F0413A
:1013800004460D46164600276D48844200D105E00C
:1013900040F26241AFF2EC60FEF7ACFF0DB1012DFF
:1013A00000D105E040F26341AFF20070FEF7A2FF0A
:1013B0000EB1012E00D105E040F26441AFF214708D
:1013C000FEF798FF15B1012D04D101E0012702E0DD
:1013D000022700E000BF00BF012E03D1207C38436C
:1013E000207404E0207CF321B94308402074BDE858
:1013F000F0812DE9F04104460D461646002750487D
:10140000844200D105E040F28A41AFF26070FEF7FD
:1014100071FF1DB1012D01D0022D00D105E040F278
:101420008B41AFF27870FEF765FF0EB1012E00D14F
:1014300005E040F28C41AFF28C70FEF75BFF25B106
:10144000012D04D0022D06D103E0102704E040272F
:1014500002E0802700E000BF00BF012E03D1207C06
:101460003843207404E0207CF321B9430840207401
:10147000BDE8F08110B504463148844200D105E052
:1014800040F2B541AFF2DC70FEF734FF207E10BDB4
:1014900070B506460C462A48864200D105E040F267
:1014A000C941AFF2F870FEF725FFA07810B1A0781F
:1014B000012800D105E040F2CA41AFF61000FEF766
:1014C00019FFE07810B1E078012800D105E040F282
:1014D000CB41AFF62800FEF70DFFE079FF2800DAD8
:1014E00005E040F2CC41AFF63C00FEF703FF607927
:1014F00010B16079012800D105E040F2CD41AFF68E
:101500005400FEF7F7FE207910B12079012800D1B0
:1015100005E040F2CE41AFF66C00FEF7EBFEA0799D
:10152000FF2800DA05E040F2CF41AFF68000FEF779
:10153000E1FE207810B12078012809D10EE00000EA
:101540000000014000C000400080094000C0094088
:101550004FF49A61AFF6AC00FEF7CCFE607810B1A4
:101560006078012800D105E040F2D141AFF6C40017
:10157000FEF7C0FE0025E07801280ED145F01005E9
:101580006079012801D145F020052079012801D199
:1015900045F00805E07986F854002078012801D14B
:1015A00045F00105A078012804D145F00405A07993
:1015B00086F85000607808B945F0020505F03F0054
:1015C00086F84C00307B40F03800307370BD012944
:1015D00006D190F84C2022F0020280F84C2005E061
:1015E00090F84C2042F0020280F84C2070472DE920
:1015F000F0470446894692461F469FB1257BA84680
:1016000028F0100884F80C800123524649462046F1
:10161000FFF7B7FB064600BF207D10F0400FFBD060
:1016200025730BE00123524649462046FFF7A9FBEC
:10163000064600BF207D10F0400FFBD03046BDE8CD
:10164000F08713B5044601231A4601A92046FFF787
:10165000CEFF1CBD70B504460D461646002332462B
:1016600029462046FFF7C3FF70BD000070B5044651
:10167000002534B1012C09D0022C0CD0032C14D13C
:101680000EE00220FEF7D3FD05460EE00420FEF733
:10169000CEFD054609E02C20FEF7C9FD054604E015
:1016A0002E20FEF7C4FD054600BF00BF284670BDD2
:1016B0002DE9F04781460C464846FFF7D7FF002644
:1016C000054600232946A1FB047C06FB04C205FB5A
:1016D0000321FD4A384600F0ABFD05462846BDE82B
:1016E000F08701464FF0FF30B1F1402F01D10020CB
:1016F0000DE0F64A914201D1012008E0F44A9142FE
:1017000001D1022003E0F34A914200D10320704747
:1017100070B505460C46B5F1402F08D0EB48854220
:1017200005D0EB48854202D0EA48854200D103E06B
:101730009F21E9A0FEF7DEFD4CB1012C07D0022C61
:1017400005D0032C03D0042C01D0052C00D103E0DC
:10175000A021E1A0FEF7CEFD28680121A1400840AC
:10176000C6B20EB1012070BD0020FCE770B5054681
:101770000C46B5F1402F08D0D448854205D0D44856
:10178000854202D0D348854200D103E0BD21D2A0DA
:10179000FEF7B0FD4CB1012C07D0022C05D0032C74
:1017A00003D0042C01D0052C00D103E0BE21CAA037
:1017B000FEF7A0FD2868211D01228A401040C6B214
:1017C0000EB1012070BD0020FCE770B505460C4647
:1017D000B5F1402F08D0BD48854205D0BC488542B0
:1017E00002D0BC48854200D103E0D621BAA0FEF762
:1017F00081FD4CB1012C07D0022C05D0032C03D065
:10180000042C01D0052C00D103E0D721B2A0FEF7B3
:1018100071FD28680121A1400843286070BD70B5A2
:1018200005460C46B5F1402F08D0A848854205D0A2
:10183000A748854202D0A748854200D103E0ED21A8
:10184000A5A0FEF757FD4CB1012C07D0022C05D006
:10185000032C03D0042C01D0052C00D103E0EE2191
:101860009DA0FEF747FD2868211D01228A401043F4
:10187000286070BD20B90A4601231370536003E04D
:101880000A460023537000BF70472DE9F047044615
:101890000D461646B4F1402F08D08C48844205D03E
:1018A0008B48844202D08B48844200D104E04FF43C
:1018B000927189A0FEF71EFD1DB1012D01D000D04F
:1018C00000D104E040F2251183A0FEF713FDB4F12E
:1018D000402F08D101210220FEF7C6FC0021022082
:1018E000FEF760FC22E07948844208D101210420FF
:1018F000FEF7BAFC00210420FEF754FC16E0744801
:10190000844208D101218805FEF7AEFC00212C207D
:10191000FEF748FC0AE06F48844207D10121C80560
:10192000FEF7A2FC00212E20FEF73CFCA06A20F06E
:101930000300A062A06AA0620020A0602061E060B5
:10194000606840F002006060606820F00200606043
:1019500085B93746387818B97868401EE06017E0D6
:101960002046FFF7BEFE81467968FFF7A1FE401EC4
:10197000E0600DE0B046A06A20F00C00A062464690
:1019800098F80100012803D1A06A40F00400A06289
:101990004FF0FF302060BDE8F08710B50446B4F189
:1019A000402F08D04948844205D04948844202D09B
:1019B0004848844200D104E040F26D1146A0FEF791
:1019C00099FC00206060B4F1402F04D10021022076
:1019D000FEF74AFC18E03D48844204D1002104206F
:1019E000FEF742FC10E03A48844205D100214FF452
:1019F0008000FEF739FC07E03648844204D100211C
:101A00004FF48000FEF730FC10BD70B504460D4663
:101A1000B4F1402F08D02D48844205D02C48844290
:101A200002D02C48844200D104E04FF4C7712AA0B0
:101A3000FEF760FC012D04D1606840F00100606099
:101A400003E0606820F00100606070BD10B50446DE
:101A5000B4F1402F08D01D48844205D01C48844270
:101A600002D01C48844200D104E04FF4D3711AA084
:101A7000FEF740FC606840F002006060606820F0A3
:101A80000200606010BD70B504460D46B4F1402FF1
:101A900008D00E48844205D00D48844202D00D483B
:101AA000844200D104E040F2C5110BA0FEF722FCF5
:101AB000287940B12879012805D02879022802D058
:101AC0002879032820D125E040420F000080004003
:101AD00000000940004009402E2E5C7369705F6B66
:101AE00065696C5C6C7063313778785F6C69625CD7
:101AF000736F757263655C6C7063313778785F748F
:101B0000696D65722E6300004FF4E371AFF2380027
:101B1000FEF7F0FB287830B1012807D0022808D062
:101B200003280CD108E0A868A0610AE0A868E06179
:101B300007E0A868206204E0A868606201E000BFD6
:101B4000FEE700BF6069297801EB4102072191405F
:101B500088436061687838B16069297801EB410297
:101B60000121914008436061E87840B160692978BB
:101B700001EB4101491C01228A4010436061A878B1
:101B800040B16069297801EB4101891C01228A403A
:101B900010436061E06B2978042202EB41020321CB
:101BA00091408843E063287900F0030029780422FB
:101BB00002EB41018840E16B0843E06370BD70B502
:101BC00004460E461546B4F1402F08D043488442DF
:101BD00005D04348844202D04248844200D105E007
:101BE00040F2FB11AFF21010FEF784FB36B1012E6C
:101BF00006D0022E06D0032E08D105E0A56107E02D
:101C0000E56105E0256203E0656201E000BFFEE7F3
:101C100000BF70BD70B504460D46B4F1402F08D02A
:101C20002E48844205D02E48844202D02D4884425A
:101C300000D105E040F22121AFF26410FEF75AFB1B
:101C4000A06A297801EB4102072191408843A062F4
:101C5000687838B1A06A297801EB410201219140EE
:101C60000843A062A87840B1A06A297801EB41013D
:101C7000491C01228A401043A062E87840B1A06A62
:101C8000297801EB4101891C01228A401043A0629E
:101C900070BD70B504460D46B4F1402F08D00F4812
:101CA000844205D00E48844202D00E48844200D1BE
:101CB00005E04FF40F71AFF2E010FEF71BFB0DB122
:101CC000012D00D105E040F23D21AFF2F410FEF706
:101CD00011FB0DB9E06A70BD206BFCE7008000408D
:101CE000000009400040094070B504460D4604B9A3
:101CF00070BDB4F87800C0F3002000B9F8E7606C5C
:101D000010B10120616C8847A06C10B10020A16C5B
:101D1000884765620020A062E06B30B1A36A5A1C5C
:101D2000A262E269D05CE16B884700BFE0E730B5B2
:101D300002460B464FF6FF7008E012F8014B444094
:101D4000E1B20012FE4C34F8114060401C00A3F1D7
:101D50000105ABB2F1D130BD2DE9F04704468A460A
:101D600016461D46089F032E05D1206A082802D278
:101D70000020BDE8F0876078032802D0062838D11B
:101D80001BE0E06980F800A0E06946702812E16974
:101D90008870E169CD703812E1690871E1694F71AD
:101DA0000621E069FFF7C3FF8046E16981F80680FC
:101DB0004FEA2820E169C8711BE0E06980F800A0C3
:101DC000E06946702812E1698870E169CD703812C7
:101DD000E1690871E1694F710621E069FFF7A7FF2A
:101DE0008146E16981F806904FEA2920E169C871CE
:101DF00000BF00BF0120BCE72DE9F84304460E46B2
:101E000017469846089D052000EB45006169884209
:101E100002D90020BDE8F8832670677065804346CC
:101E20003A46314620460095FFF796FFA16F60F3D2
:101E30000821A16708212046FFF756FF0120E9E7A6
:101E40002DE9F84304460D4616461F46DDF820806E
:101E50006069082802D20020BDE8F883257066700A
:101E6000A780A4F806803B46324629462046CDF896
:101E70000080FFF771FFA16F60F30821A1670821BF
:101E80002046FFF731FF0120E6E710B5044604B90C
:101E900010BD0020A061A06F20F00200A067A06F1D
:101EA00020F00400A067606C10B10020616C8847CE
:101EB00000BFEDE701460020062916D2DFE801F059
:101EC0000306090C0F124FF416500FE04FF4615047
:101ED0000CE04FF4964009E04FF4164006E04FF452
:101EE000614003E04FF4E13000E000BF00BF704705
:101EF0002DE9F04104460CB9BDE8F081A18988B212
:101F0000FFF7D8FF0546A06B10B12846A16B8847A4
:101F10000020A067A06F20F008000830A067002014
:101F2000E062A0616062E066A06F20F40070A067CC
:101F30008448B0FBF5F7384600F056FA064694F8A8
:101F4000340000F051FA0746314600F0DBFA03D2C4
:101F50000120E062206305E0304600F025FA2063AE
:101F60000020E0622046FFF790FF00BFC4E7002199
:101F70008161816F21F480618167816F21F00801A7
:101F80008167816F21F004018167816F21F4007105
:101F90008167704730B504460D4604B930BD94F8EA
:101FA0007800C0F3800010B10020E062F6E702B9CB
:101FB0003BB10020A061A06F20F008000830A067AE
:101FC000ECE7D4E9051088420AD30020A061A06F95
:101FD00020F008000830A0672046FFF7C8FFDDE7C3
:101FE0000020E06294F87800C0F3C00000B9D5E7A3
:101FF000A06988B92078A8420ED06DB1A06F20F0FA
:1020000008000830A067A06F20F00100401CA06706
:102010002046FFF7ACFFC1E7A069012816D1607820
:10202000A8420DD0A06F20F008000830A067A06F74
:1020300020F00100401CA0672046FFF798FFADE7A5
:10204000A06F20F4007000F50070A067A06F20F072
:102050001000A067A16920694554A069401CA061D7
:10206000A06F20F00100401CA0670020E06200BFCC
:1020700094E710B50446A06F20F00100401CA06753
:10208000A06F20F01000A067A06F20F00200A067F2
:10209000E06C804710BD10B50446A06F20F0010031
:1020A000A067A06F20F01000A067A06F20F00200D2
:1020B000A0670020E062206D804710BD0021816292
:1020C0004162816F21F002018167816F21F001017E
:1020D0008167704770B50446606D80470546102DD6
:1020E0001FD1D4E90910884207D2A36A5A1CA26200
:1020F000E269D05CE16B884713E02046FFF7DEFF22
:102100002046FFF7C2FEA06F20F00100401CA06730
:102110002046FFF7AEFF0020616C88470120A16CCC
:102120008847012D1DD12046FFF7B5FF206C804761
:10213000064600231A4631462046FFF72BFF03E0F0
:102140006625000000093D00A06F20F00100401C42
:10215000A067A06F20F01000A0672046FFF789FF5E
:1021600000BF70BD30B50446A06F20F00400001D14
:10217000A067607803281BD1A069401E61880522F2
:1021800002EB4101884213D1228B521E91B2206989
:10219000FFF7CDFD054635B9A06F20F4806000F54E
:1021A0008060A06703E0A06F20F48060A06700BF9C
:1021B000A06F20F00400A06730BD10B5044694F86D
:1021C000780010F0010F00D110BDD4E90B01884256
:1021D00014D294F8780010F0010F0FD094F8780022
:1021E000C0F3001050B9E06A142801D1012000BFEB
:1021F00094F83410E06A0844E062E5E70020E06209
:102200002046FFF7B4FE2046FFF745FFA06F20F001
:1022100010001030A067B4F87800C0F3402028B157
:102220002046FFF738FF2046FFF79CFF00BFCBE7B3
:1022300053EA020C00F069802DE9F04B4FF00006E4
:10224000002B1FBFB3FA83F503FA05F424FA05F651
:102250005E4012BF1643B2FA82F502FA05F4C5F1E8
:1022600020051EBF22FA05FC44EA0C04203556EA7C
:10227000044C4FEA144418BF641C4FF000084FF0A0
:102280000009904271EB030C39D3002919BFB1FA50
:1022900081F701FA07F6B0FA80F700FA07F6C7F1FE
:1022A00020071EBF20FA07FC46EA0C062037B6FBC3
:1022B000F4FCA7EB0507103F07F01F0BCBF120063E
:1022C0000CFA0BFB2CFA06F644BFB3460026202F6F
:1022D000A4BF5E464FF0000B5BEA060C08BF4FF050
:1022E000010B19EB0B09ABFB027C48EB0608C01B8A
:1022F00006FB02CC0BFB03CC71EB0C01C1E70B46D8
:10230000024641464846BDE8F08B13B54FF0000049
:102310004FF00001AFF30080BDE81C4070477047EC
:1023200070477047754600F029F8AE4605006946CB
:10233000534620F00700854618B020B5FDF722FF70
:10234000BDE820404FF000064FF000074FF00008B6
:102350004FF0000B21F00701AC46ACE8C009ACE837
:10236000C009ACE8C009ACE8C0098D467047044616
:10237000AFF300802046FDF7F0FE000000487047F4
:10238000C800001001491820ABBEFEE7260002007D
:10239000401058BFC0F14040491058BFC1F1404102
:1023A0008142EFF300807047C10DD1F19E0206DB40
:1023B0004FEA002343F0004323FA02F07047004243
:1023C00007D54FEA4001B1F1FE4F02D24FF00000B5
:1023D000704710B500F050F84992248000207047F3
:1023E0006FEA200070470000B0FA80F310FA03F2A1
:1023F000C3F19D030AD0D90501EB1220530638BF63
:10240000704700F1010008BF20F001007047000094
:1024100050EA010C00F113801CF5000F58BFBCF509
:10242000000F01D48842704707D710F5000F58BF3E
:1024300011F5000F15D488427047894270471CF58A
:10244000000F04D5BCF5000FF7D5814270474FF05F
:10245000807C1CEB400F38BF1CEB410F01D2814246
:10246000704710B500F008F8922449004FF0005072
:102470004FF08051FFF78CBF0EF1020E2EF0030ECD
:102480005EF8044B244204D44FEA4102B2F17F4F7C
:1024900011D84FEA4003B3F17F4F0CD80ED14FEA69
:1024A000D07CB2F17F4F0CEB4C0C0CF1020C08BF4E
:1024B0004CEBD17C04E04FF0080C01E04FEAD17CFA
:1024C0000CEB4C0324FA03F404F00704B4F1040CFD
:1024D00006D20EEB840CBDE810404CF0010C6047B6
:1024E000DFE80CF0070802024FF00040A0F5800082
:1024F00010BD0846420018BFD2F1807288BF00F0BC
:10250000004010BD51EA000C00F113801CF5000FD3
:1025100058BFBCF5000F01D48142704707D711F5B1
:10252000000F58BF10F5000F15D481427047894243
:1025300070471CF5000F04D5BCF5000FF7D5884295
:1025400070474FF0807C1CEB410F38BF1CEB400FF5
:1025500001D28842704780EA010081EA000180EAE6
:102560000100FFF77EBF0000C1C081C1400101C36F
:10257000C003800241C201C6C006800741C70005F2
:10258000C1C581C4400401CCC00C800D41CD000FF9
:10259000C1CF81CE400E000AC1CA81CB400B01C918
:1025A000C009800841C801D8C018801941D9001B52
:1025B000C1DB81DA401A001EC1DE81DF401F01DD70
:1025C000C01D801C41DC0014C1D481D5401501D749
:1025D000C017801641D601D2C012801341D300111A
:1025E000C1D181D0401001F0C030803141F10033C1
:1025F000C1F381F240320036C1F681F7403701F570
:10260000C035803441F4003CC1FC81FD403D01FFF8
:10261000C03F803E41FE01FAC03A803B41FB003999
:10262000C1F981F840380028C1E881E9402901EB6F
:10263000C02B802A41EA01EEC02E802F41EF002DF1
:10264000C1ED81EC402C01E4C024802541E5002748
:10265000C1E781E640260022C1E281E3402301E197
:10266000C021802041E001A0C060806141A10063E1
:10267000C1A381A240620066C1A681A7406701A5EF
:10268000C065806441A4006CC1AC81AD406D01AFF8
:10269000C06F806E41AE01AAC06A806B41AB006919
:1026A000C1A981A840680078C1B881B9407901BB4F
:1026B000C07B807A41BA01BEC07E807F41BF007D71
:1026C000C1BD81BC407C01B4C074807541B5007748
:1026D000C1B781B640760072C1B281B3407301B117
:1026E000C071807041B00050C19081914051019300
:1026F000C053805241920196C05680574197005571
:10270000C19581944054019CC05C805D419D005FF7
:10271000C19F819E405E005AC19A819B405B019996
:10272000C059805841980188C04880494189004B70
:10273000C18B818A404A004EC18E818F404F018DEE
:10274000C04D804C418C0044C18481854045018747
:10275000C047804641860182C04280434183004198
:10276000C1818180404000008827000000000010E7
:102770002000000008010000A82700002000001031
:10278000080300002401000000000008000A000007
:102790000000000000000000000000000000000039
:0827A0000000000000E1F50556
:04000005000000CD2A
:00000001FF
