:020000040000FA
:1000000098020010690100007101000073010000F6
:100010007501000077010000790100000000000078
:100020000000000000000000000000007B01000054
:100030007D010000000000007F0100008101000040
:1000400083010000830100008301000083010000A0
:100050008301000083010000830100008301000090
:100060008301000083010000830100008301000080
:100070008301000083010000830100008301000070
:100080008301000083010000830100008301000060
:100090008301000079080000830100008301000053
:1000A0008301000083010000830100008301000040
:1000B0008301000083010000830100008301000030
:1000C00083010000830100008301000000F002F8BA
:1000D00000F03AF80AA090E8000C82448344AAF1A8
:1000E0000107DA4501D100F02FF8AFF2090EBAE8A6
:1000F0000F0013F0010F18BFFB1A43F0010318475C
:100100007811000098110000103A24BF78C878C117
:10011000FAD8520724BF30C830C144BF04680C600D
:10012000704700000023002400250026103A28BF55
:1001300078C1FBD8520728BF30C148BF0B60704759
:100140001FB51FBD10B510BD01F061F81146FFF7D6
:10015000F7FF00F086FA01F07FF803B4FFF7F2FF33
:1001600003BC01F083F800000948804709480047B4
:10017000FEE7FEE7FEE7FEE7FEE7FEE7FEE7FEE757
:10018000FEE7FEE704480549034A054B70470000B7
:10019000310A0000CD000000980000109802001005
:1001A0009800001010B50A46202801D2034601E04D
:1001B000A0F120031946202814D2464B1B684FF0AB
:1001C000030404FA01F423EA0403434CC4F8A831FD
:1001D000404B1B6802FA01F443EA04033E4CC4F8A6
:1001E000A83113E03D4B1B684FF0030404FA01F4FF
:1001F00023EA0403384CC4F8AC31384B1B6802FACC
:1002000001F443EA0403344CC4F8AC3110BD014698
:10021000202903D20A462F4B186803E0A1F12002DF
:100220002E4B186820FA02F303F00300704770B5F4
:1002300006462B4804683046FFF7E9FF054635B10E
:10024000012D06D0022D06D0032D08D105E004258E
:1002500005E0012503E0022501E0082500BF00BFFD
:10026000B4FBF5F4204670BD01290AD11D4A12687D
:100270001D4B00EA030342EA0302174BC3F8C420F4
:100280000AE049B9174A1268174B23EA000302EA49
:100290000302114BC3F8C4207047002013490860C3
:1002A00030BF704704201249086008200F490860D9
:1002B00030BF704704200E49086009200B490860D0
:1002C00030BF704704200A490860032007490860CE
:1002D00030BF7047A8C10F4000C00F40ACC10F40F5
:1002E0001C000010C4C00F40DEF7EFEFC0C00F408D
:1002F00010ED00E000BFFEE770470000FFFFFFFFCA
:1003000000E0401E0028FCD1704700BFFE48C068D6
:1003100010F0100FFAD1704770B50446FB48C06961
:1003200040F48010F949C8612146F74800F01BFDF0
:10033000FFF7EBFF4FF47A70FFF7E2FF04E0F248BB
:1003400000F023FDF2490870EF48C06810F0040F78
:10035000F5D10021EC4800F006FDFFF7D6FF4FF481
:100360007A70FFF7CDFFE84800F00FFDC5B2E7480F
:10037000806940F48010E5498861284670BD70B5F9
:1003800004460D46E148C06940F48010DF49C86169
:1003900004F18001DC4800F0E6FCFFF7B6FF04E062
:1003A000D94800F0F2FCDA490870D748C06810F06C
:1003B000040FF5D14FF47A70FFF7A2FF2946D24817
:1003C00000F0D1FCFFF7A1FF04E0CF4800F0DDFC16
:1003D000CF490870CC48C06810F0040FF5D1CB4865
:1003E000806940F48010C949886170BD10B5012151
:1003F0000720FFF7C4FF10BD2DE9F041C348806915
:1004000040F40000C1498861FFF7F0FF42F210702C
:10041000FFF776FF42F21070FFF772FF42F21070A2
:10042000FFF76EFF03210820FFF7A9FF40213420CA
:10043000FFF7A5FF11213E20FFF7A1FF002405E0F3
:10044000B448015D7F20FFF79AFF641C112CF7DB95
:1004500004210520FFF793FF0320FFF75DFF064609
:100460000420FFF759FF074609210720FFF787FF00
:1004700005E00E20FFF750FF0546002400BFA3480B
:10048000406910F4002FF4D0FFF7B0FFA248FFF747
:1004900037FF9E48C06940F400009C49C861BDE830
:1004A000F0813EB504E0984800F06FFC9849087070
:1004B0009548C06810F0040FF5D100240520FFF71F
:1004C0002BFF0DF80400641C0320FFF725FF0DF837
:1004D0000400641C0420FFF71FFF0DF80400641CD7
:1004E0000520FFF719FF0DF80400641C0620FFF734
:1004F00013FF0DF80400641C3020FFF70DFF0DF80A
:100500000400641C7020FFF707FF0DF80400641C52
:100510007520FFF701FF0DF80400641C7620FFF73B
:10052000FBFE0DF80400641C7720FFF7F5FE0DF8C4
:100530000400641C3EBD70B50320FFF7EDFE0446C9
:100540000420FFF7E9FE054600210620FFF717FF0C
:1005500001210720FFF713FF7F210920FFF70FFF7D
:1005600005210A20FFF70BFFF4210B20FFF707FFFF
:10057000EF210C20FFF703FFFD210D20FFF7FFFE09
:1005800000210E20FFF7FBFE20217020FFF7F7FE71
:1005900013216E20FFF7F3FEA9216F20FFF7EFFE76
:1005A0008C213020FFF7EBFEFF213220FFF7E7FE22
:1005B00042213320FFF7E3FE40213420FFF7DFFE26
:1005C0002D213620FFF7DBFED4213720FFF7D7FEA1
:1005D00000213820FFF7D3FE00213920FFF7CFFE9E
:1005E00073213A20FFF7CBFE6F213B20FFF7C7FEB8
:1005F0006E213C20FFF7C3FE67213D20FFF7BFFEC1
:1006000011213E20FFF7BBFE0F216D20FFF7B7FE43
:1006100000217920FFF7B3FE00217A20FFF7AFFE1B
:1006200022217120FFF7ABFE38217220FFF7A7FED1
:1006300000217320FFF7A3FE00217420FFF79FFE27
:1006400053217520FFF79BFE64217620FFF797FE6C
:1006500000217720FFF793FE04210520FFF78FFE8E
:1006600070BD2E48006840F402102D49C1F8C40046
:100670000846D0F8AC0140F48060C1F8AC012948CC
:10068000006840F00040274908600846406840F094
:10069000280048601D48006840F480101B4908602D
:1006A0000846807840F0800088701E48406C40F416
:1006B00040401C4948641C481C4948614FF0800078
:1006C00048604FF0000088604FF0070008604FF06E
:1006D00000000861C8600C4800F071FA01210A4866
:1006E00000F0D9FA62B61248D0F8900040F4002029
:1006F0000F49C1F8900015200121814042094FF0B7
:10070000E02303EB820215E00080084000C00920CE
:100710001800001000000010404B4C00C4C00F40F7
:1007200000C00F4000C00240A08601002000001061
:1007300000800240C2F8001100BF6848806940F4A0
:100740008010664988616648FFF7DAFD6448FFF764
:10075000D7FD6348FFF7D4FD6148FFF7D1FD60483E
:10076000FFF7CEFD5E48FFF7CBFD5D48FFF7C8FD04
:100770005B48FFF7C5FD5A48FFF7C2FD5848FFF731
:10078000BFFDFFF78EFE5748FFF7BAFDFFF7D3FE18
:100790005448FFF7B5FDFFF784FE00242CE04F48D6
:1007A000406910F0100F1FD1F4B901244B48806943
:1007B00040F400004949886100204B490860FFF778
:1007C0001BFE0320FFF7A8FD054642F21070FFF75D
:1007D00097FD42F21070FFF793FD4048C06940F466
:1007E00000003E49C86100BF3C48406910F0100F4E
:1007F00002D0012C00D10024D1E710B5012107203F
:10080000FFF7BDFD0320FFF787FD3849087004207E
:10081000FFF782FD3549087017217E20FFF7AFFDF5
:1008200003210820FFF7ABFD00210820FFF7A7FDFB
:1008300005210720FFF7A3FD02210520FFF79FFDFB
:1008400010BD10B52548C06940F480102349C86127
:10085000AA21274800F087FA42F21070FFF750FDF6
:10086000234800F092FAC4B21C48806940F480101A
:100870001A498861204610BD00B54FF400201D497B
:1008800008601848FFF73CFD1448406910F0100F4D
:1008900003D101201449086001E0172000BF0F4870
:1008A000406910F4002F01D0002000BF0B484069C0
:1008B00010F4002F01D1012000BF00BD70B501244C
:1008C000002507E00420FFF727FD054615F0020F7D
:1008D00000D00024002CF5D170BD000000C009201C
:1008E00040420F00A0860100140000101800001004
:1008F000008008408C8002407E480068C0F30160A0
:10090000032864D17C48006810F0030006D0012859
:1009100023D002283FD0032858D100E000BF7548FB
:100920000068C0F30E0000F101004FEA4000734977
:1009300000FB01F07249D1F88810C1F3074101F1C1
:100940000101B0FBF1F16F480068C0B200F1010095
:10095000B1FBF0F06C49086038E066480068C0F30D
:100960000E0000F101004FEA4000684900FB01F071
:100970006349D1F88810C1F3074101F10101B0FBCF
:10098000F1F160480068C0B200F10100B1FBF0F085
:100990005D4908601AE057480068C0F30E0000F196
:1009A00001004FEA00415648D0F88800C0F30740E4
:1009B00000F10100B1FBF0F152480068C0B200F153
:1009C0000100B1FBF0F05049086000BF2FE04A4839
:1009D000006810F0030006D0012810D0022819D0BA
:1009E000032823D100E000BF46480068C0B200F1F0
:1009F00001004249B1FBF0F04349086016E041486C
:100A00000068C0B200F101004049B1FBF0F03E497E
:100A100008600BE03B480068C0B200F101004FF4F1
:100A20000041B1FBF0F03849086000BF00BF7047DB
:100A30000020374908603248D0F8A00110F0200F9C
:100A400005D000BF3248006810F0400FFAD00320F4
:100A50002C4908604FF488502949C1F8A8012D4855
:100A60002D4908604FF00000234908602B482C49AD
:100A700008604FF0AA002B4908604FF0550008604D
:100A80004FF00100284908604FF0AA00254908608E
:100A90004FF055001A49C1F88C0000BF1548006896
:100AA00010F0806FFAD003201F4908604FF0AA00B1
:100AB0001349C1F88C004FF055001A49086000BF77
:100AC0000C48006810F0407FFAD0072017490860F2
:100AD00017480B49C1F8C4004FF0000015490860E1
:100AE00044F23A00064908604FF0000012490860DD
:100AF0007047000088C00F400CC10F4000093D0046
:100B000000C00F4004C10F401C000010001BB700C4
:100B1000A0C10F4000040500ACC10F4063000100FC
:100B200084C00F408CC00F4080C00F4008C10F40F0
:100B300042862927C8C10F4008ED00E02DE9F047A3
:100B400004468846F848844202D0F848844200D1DE
:100B500003E03D21F6A0FFF7CDFBF348844204D12A
:100B60002A20FFF764FB074609E0F048844204D1DD
:100B70001420FFF75CFB074601E0BDE8F087002585
:100B80004FF0FF3902260AE0681C7043B7FBF0F90A
:100B9000C14504D96D1CFF2D01D90025B61CC145E6
:100BA000F2D82068C0B2206020684FF6FF7101EAD9
:100BB000052108432060F0B2206100BFDDE770B579
:100BC00004460D46D848844202D0D848844200D119
:100BD00003E07B21D6A0FFF78DFBD348844204D1EC
:100BE00001214805FFF740FB08E0D048844204D1CA
:100BF00001210015FFF738FB00E070BDA8882989A6
:100C00000843298A08432988084386B22660287B3E
:100C100000F00F06666020466969FFF78FFF00BF8E
:100C2000EBE710B50446C048844202D0BF48844276
:100C300000D103E0A221BEA0FFF75CFBBA488442CA
:100C400005D100214FF40010FFF70EFB06E0B74876
:100C5000844203D100210015FFF706FB10BD10B53B
:100C60000446B148844202D0B048844200D103E037
:100C7000BA21AFA0FFF73EFB206800F00F0010BDC7
:100C8000002141608160B649416107210160002176
:100C9000C1600161704770B504460D46A2488442A8
:100CA00002D0A248844200D103E0DF21A0A0FFF7D8
:100CB00021FB0DB1012D00D103E0E0219CA0FFF745
:100CC00019FB012D04D1606840F00200606003E070
:100CD000606800F00D00606070BD70B504460D46A0
:100CE0009148844202D09148844200D103E0F82127
:100CF0008FA0FFF7FFFA0DB1012D00D103E0F9211C
:100D00008BA0FFF7F7FA012D04D1606840F00100D5
:100D1000606003E0606800F00E00606070BD70B558
:100D200004460D468048844202D08048844200D167
:100D300004E04FF48A717EA0FFF7DCFA0DB1012DBB
:100D400000D104E040F2151179A0FFF7D3FA012D8C
:100D500004D1606800F00700606003E0606840F064
:100D60000800606070BD70B504460D466E48844250
:100D700002D06E48844200D104E04FF497716CA019
:100D8000FFF7B8FAA8B2A06070BD10B50446664877
:100D9000844202D06548844200D104E04FF49F7140
:100DA00063A0FFF7A7FAA06880B210BD2DE9FC5F31
:100DB00006460C4691464FF0000AD34600200190AB
:100DC0000090E0606060606103E03046FFF7DDFFA7
:100DD0000746F06810F0040FF7D103203062304668
:100DE000FFF73DFF082801DD012500E00025B9F1EE
:100DF000000F7AD125B9D4F808A0D4F800B003E0E8
:100E0000A06801902068009060E0F06810F0020F88
:100E10002ED02169606888422AD0206888B93DB9FF
:100E2000FF213046FFF79FFF6068401C60601FE0B5
:100E30004FF6FF713046FFF796FF6068801C6060D8
:100E400016E055B99BF800103046FFF78CFF0BF108
:100E5000010B6068401C60600AE000980188304621
:100E6000FFF781FF0098801C00906068801C606024
:100E7000D6F8188018F0010F06D048F400706061B1
:100E80004FF0FF30BDE8FC9F18E03046FFF77DFFD4
:100E90000746A06850B125B98AF800700AF1010A26
:100EA00004E0019807800198801C01901DB9E0685A
:100EB000401CE06002E0E068801CE060F06810F038
:100EC000040F03D0D4E903018842DED121696068B0
:100ED00088429AD1D4E90301884296D14FF48070B8
:100EE0006061206810B16068CCE705E0A06808B1D7
:100EF000E068C7E70020C5E7B9F1010F7ED170E0D7
:100F0000206878BB3DB9FF213046FFF72CFF6068B1
:100F1000401C60603BE04FF6FF713046FFF723FF57
:100F20006068801C606032E0008008400000034080
:100F30002E2E5C7369705F6B65696C5C6C706331DD
:100F40003778785F6C69625C736F757263655C6C2F
:100F50007063313778785F7373702E630000000020
:100F600040420F00FFE74DB9D4E90002815C3046F2
:100F7000FFF7F9FE6068401C606008E0D4E90002F9
:100F8000815A3046FFF7EFFE6068801C6060D6F83B
:100F9000188018F0010F05D048F4007060614FF020
:100FA000FF306FE715E03046FFF7EFFE0746A06819
:100FB00038B11DB9D4E902128F5402E0D4E902120B
:100FC0008F521DB9E068401CE06002E0E068801CC0
:100FD000E060F06810F0040F03D0D4E90301884208
:100FE000E1D1F06810F0020F03D0216960688842F7
:100FF00086D1D4E90301884205D100E00BE02169E4
:101000006068884202D00F20706102E04FF4807067
:101010006061002036E74FF0FF3033E770B50546DA
:101020000C467748854202D07648854200D105E0DB
:1010300040F20E21AFF20810FFF75CF9012C07D047
:10104000022C05D0042C03D0082C01D0102C00D188
:1010500005E040F20F21AFF22810FFF74BF9E868E6
:10106000204201D0012070BD0020FCE770B504468D
:101070000D4616466248844202D06248844200D13E
:1010800005E040F22621AFF25810FFF733F9012EA8
:1010900003D160692843606104E060690F21A943BE
:1010A0000840606170BD70B505460C4654488542E5
:1010B00002D05448854200D105E040F24321AFF20E
:1010C0009010FFF717F9012C05D0022C03D0042C47
:1010D00001D0082C00D105E04FF41171AFF2B0102F
:1010E000FFF708F9A869204201D0012070BD002057
:1010F000FCE710B504464248844202D0414884428D
:1011000000D105E040F25221AFF2DC10FFF7F2F817
:10111000A06910BD70B505460C463948854202D01D
:101120003848854200D105E040F26721AFF2002047
:10113000FFF7E0F8012C05D0022C03D0042C01D0DD
:10114000082C00D105E04FF41A71AFF21C20FFF714
:10115000D1F8E869204201D0012070BD0020FCE7F1
:1011600070B504460D462648844202D02548844284
:1011700000D105E040F27B21AFF24C20FFF7BAF836
:10118000012D01D0022D00D105E04FF41F71AFF207
:101190006020FFF7AFF8256270BD70B504460D46BC
:1011A00016461748844202D01648844200D105E012
:1011B00040F29121AFF28820FFF79CF8022D01D078
:1011C000012D00D105E040F29221AFF29C20FFF703
:1011D00091F80EB1012E00D105E040F29321AFF25B
:1011E000B020FFF787F8012E03D1606A28436062C0
:1011F00004E0606A0321A9430840606270BD0000FA
:1012000000800840000003407047704770477546F3
:1012100000F028F8AE4605006946534620F0070066
:10122000854618B020B5FEF7ADFFBDE820404FF071
:1012300000064FF000074FF000084FF0000B21F0C0
:101240000701AC46ACE8C009ACE8C009ACE8C0098D
:10125000ACE8C0098D4670470446AFF300802046D5
:10126000FEF77BFF00487047380000100149182046
:10127000ABBEFEE72600020098120000000000103E
:101280002000000008010000B8120000200000103B
:101290007802000024010000303132333435363713
:1012A00038393A3B3C3D3E3F7800000000000000EA
:0812B0000000000000E1F5055B
:04000005000000CD2A
:00000001FF
